{"contracts/Marketplace.sol":{"Marketplace":{"abi":[{"inputs":[],"stateMutability":"nonpayable","type":"constructor"},{"anonymous":false,"inputs":[{"indexed":false,"internalType":"uint256","name":"id","type":"uint256"},{"indexed":false,"internalType":"string","name":"name","type":"string"},{"indexed":false,"internalType":"uint256","name":"price","type":"uint256"},{"indexed":false,"internalType":"uint256","name":"quantity","type":"uint256"},{"indexed":false,"internalType":"address","name":"seller","type":"address"}],"name":"ProductCreated","type":"event"},{"anonymous":false,"inputs":[{"indexed":false,"internalType":"uint256","name":"id","type":"uint256"},{"indexed":false,"internalType":"string","name":"name","type":"string"},{"indexed":false,"internalType":"uint256","name":"price","type":"uint256"},{"indexed":false,"internalType":"uint256","name":"quantity","type":"uint256"},{"indexed":false,"internalType":"address","name":"buyer","type":"address"}],"name":"ProductPurchased","type":"event"},{"inputs":[{"internalType":"uint256","name":"_productId","type":"uint256"}],"name":"listProduct","outputs":[],"stateMutability":"nonpayable","type":"function"},{"inputs":[],"name":"owner","outputs":[{"internalType":"address","name":"","type":"address"}],"stateMutability":"view","type":"function"},{"inputs":[],"name":"productCount","outputs":[{"internalType":"uint256","name":"","type":"uint256"}],"stateMutability":"view","type":"function"},{"inputs":[{"internalType":"uint256","name":"","type":"uint256"}],"name":"products","outputs":[{"internalType":"uint256","name":"id","type":"uint256"},{"internalType":"string","name":"name","type":"string"},{"internalType":"string","name":"description","type":"string"},{"internalType":"uint256","name":"price","type":"uint256"},{"internalType":"uint256","name":"quantity","type":"uint256"},{"internalType":"address payable","name":"seller","type":"address"},{"internalType":"address payable","name":"buyer","type":"address"},{"internalType":"bool","name":"isSold","type":"bool"}],"stateMutability":"view","type":"function"},{"inputs":[{"internalType":"uint256","name":"_productId","type":"uint256"},{"internalType":"uint256","name":"_quantity","type":"uint256"}],"name":"purchaseProduct","outputs":[],"stateMutability":"nonpayable","type":"function"},{"inputs":[{"internalType":"string","name":"_name","type":"string"},{"internalType":"string","name":"_description","type":"string"},{"internalType":"uint256","name":"_price","type":"uint256"},{"internalType":"uint256","name":"_quantity","type":"uint256"}],"name":"registerProduct","outputs":[],"stateMutability":"nonpayable","type":"function"}],"evm":{"bytecode":{"linkReferences":{},"object":"608060405234801561001057600080fd5b50336000806101000a81548173ffffffffffffffffffffffffffffffffffffffff021916908373ffffffffffffffffffffffffffffffffffffffff160217905550611743806100606000396000f3fe608060405234801561001057600080fd5b50600436106100625760003560e01c80637acc0b20146100675780638890fe981461009e5780638da5cb5b146100ba578063a0440426146100d8578063c38f01aa146100f4578063e0f6ef8714610110575b600080fd5b610081600480360381019061007c9190610957565b61012e565b604051610095989796959493929190610a7f565b60405180910390f35b6100b860048036038101906100b39190610957565b6102d3565b005b6100c2610442565b6040516100cf9190610b2c565b60405180910390f35b6100f260048036038101906100ed9190610b47565b610466565b005b61010e60048036038101906101099190610cbc565b610590565b005b610118610907565b6040516101259190610d5b565b60405180910390f35b600260205280600052604060002060009150905080600001549080600101805461015790610da5565b80601f016020809104026020016040519081016040528092919081815260200182805461018390610da5565b80156101d05780601f106101a5576101008083540402835291602001916101d0565b820191906000526020600020905b8154815290600101906020018083116101b357829003601f168201915b5050505050908060020180546101e590610da5565b80601f016020809104026020016040519081016040528092919081815260200182805461021190610da5565b801561025e5780601f106102335761010080835404028352916020019161025e565b820191906000526020600020905b81548152906001019060200180831161024157829003601f168201915b5050505050908060030154908060040154908060050160009054906101000a900473ffffffffffffffffffffffffffffffffffffffff16908060060160009054906101000a900473ffffffffffffffffffffffffffffffffffffffff16908060060160149054906101000a900460ff16905088565b60006002600083815260200190815260200160002090506000816000015411801561030c57508060060160149054906101000a900460ff165b61034b576040517f08c379a000000000000000000000000000000000000000000000000000000000815260040161034290610e48565b60405180910390fd5b8060050160009054906101000a900473ffffffffffffffffffffffffffffffffffffffff1673ffffffffffffffffffffffffffffffffffffffff163373ffffffffffffffffffffffffffffffffffffffff16146103dd576040517f08c379a00000000000000000000000000000000000000000000000000000000081526004016103d490610eda565b60405180910390fd5b60008160060160146101000a81548160ff02191690831515021790555060008160060160006101000a81548173ffffffffffffffffffffffffffffffffffffffff021916908373ffffffffffffffffffffffffffffffffffffffff1602179055505050565b60008054906101000a900473ffffffffffffffffffffffffffffffffffffffff1681565b6000600260008481526020019081526020016000209050600081600001541180156104a057508060060160149054906101000a900460ff16155b6104df576040517f08c379a00000000000000000000000000000000000000000000000000000000081526004016104d690610f6c565b60405180910390fd5b8060040154821115610526576040517f08c379a000000000000000000000000000000000000000000000000000000000815260040161051d90610fd8565b60405180910390fd5b8181600401600082825461053a9190611027565b925050819055507fd922a2fffde7c04efb85e105cb4324b2ebe96919a6a107b6c63afb85484b8da9816000015482600101836003015485336040516105839594939291906110f4565b60405180910390a1505050565b60008054906101000a900473ffffffffffffffffffffffffffffffffffffffff1673ffffffffffffffffffffffffffffffffffffffff163373ffffffffffffffffffffffffffffffffffffffff161461061e576040517f08c379a0000000000000000000000000000000000000000000000000000000008152600401610615906111c0565b60405180910390fd5b6000845111610662576040517f08c379a00000000000000000000000000000000000000000000000000000000081526004016106599061122c565b60405180910390fd5b60008351116106a6576040517f08c379a000000000000000000000000000000000000000000000000000000000815260040161069d906112be565b60405180910390fd5b600082116106e9576040517f08c379a00000000000000000000000000000000000000000000000000000000081526004016106e090611350565b60405180910390fd5b6000811161072c576040517f08c379a0000000000000000000000000000000000000000000000000000000008152600401610723906113e2565b60405180910390fd5b6001600081548092919061073f90611402565b919050555060405180610100016040528060015481526020018581526020018481526020018381526020018281526020013373ffffffffffffffffffffffffffffffffffffffff168152602001600073ffffffffffffffffffffffffffffffffffffffff168152602001600015158152506002600060015481526020019081526020016000206000820151816000015560208201518160010190816107e491906115e1565b5060408201518160020190816107fa91906115e1565b50606082015181600301556080820151816004015560a08201518160050160006101000a81548173ffffffffffffffffffffffffffffffffffffffff021916908373ffffffffffffffffffffffffffffffffffffffff16021790555060c08201518160060160006101000a81548173ffffffffffffffffffffffffffffffffffffffff021916908373ffffffffffffffffffffffffffffffffffffffff16021790555060e08201518160060160146101000a81548160ff0219169083151502179055509050507f75f809131c39228d740da0b686206b8ae86548c72bfdc872da71f4d4340301de600154858484336040516108f99594939291906116b3565b60405180910390a150505050565b60015481565b6000604051905090565b600080fd5b600080fd5b6000819050919050565b61093481610921565b811461093f57600080fd5b50565b6000813590506109518161092b565b92915050565b60006020828403121561096d5761096c610917565b5b600061097b84828501610942565b91505092915050565b61098d81610921565b82525050565b600081519050919050565b600082825260208201905092915050565b60005b838110156109cd5780820151818401526020810190506109b2565b60008484015250505050565b6000601f19601f8301169050919050565b60006109f582610993565b6109ff818561099e565b9350610a0f8185602086016109af565b610a18816109d9565b840191505092915050565b600073ffffffffffffffffffffffffffffffffffffffff82169050919050565b6000610a4e82610a23565b9050919050565b610a5e81610a43565b82525050565b60008115159050919050565b610a7981610a64565b82525050565b600061010082019050610a95600083018b610984565b8181036020830152610aa7818a6109ea565b90508181036040830152610abb81896109ea565b9050610aca6060830188610984565b610ad76080830187610984565b610ae460a0830186610a55565b610af160c0830185610a55565b610afe60e0830184610a70565b9998505050505050505050565b6000610b1682610a23565b9050919050565b610b2681610b0b565b82525050565b6000602082019050610b416000830184610b1d565b92915050565b60008060408385031215610b5e57610b5d610917565b5b6000610b6c85828601610942565b9250506020610b7d85828601610942565b9150509250929050565b600080fd5b600080fd5b7f4e487b7100000000000000000000000000000000000000000000000000000000600052604160045260246000fd5b610bc9826109d9565b810181811067ffffffffffffffff82111715610be857610be7610b91565b5b80604052505050565b6000610bfb61090d565b9050610c078282610bc0565b919050565b600067ffffffffffffffff821115610c2757610c26610b91565b5b610c30826109d9565b9050602081019050919050565b82818337600083830152505050565b6000610c5f610c5a84610c0c565b610bf1565b905082815260208101848484011115610c7b57610c7a610b8c565b5b610c86848285610c3d565b509392505050565b600082601f830112610ca357610ca2610b87565b5b8135610cb3848260208601610c4c565b91505092915050565b60008060008060808587031215610cd657610cd5610917565b5b600085013567ffffffffffffffff811115610cf457610cf361091c565b5b610d0087828801610c8e565b945050602085013567ffffffffffffffff811115610d2157610d2061091c565b5b610d2d87828801610c8e565b9350506040610d3e87828801610942565b9250506060610d4f87828801610942565b91505092959194509250565b6000602082019050610d706000830184610984565b92915050565b7f4e487b7100000000000000000000000000000000000000000000000000000000600052602260045260246000fd5b60006002820490506001821680610dbd57607f821691505b602082108103610dd057610dcf610d76565b5b50919050565b7f50726f6475637420646f6573206e6f74206578697374206f72206973206e6f7460008201527f20736f6c64000000000000000000000000000000000000000000000000000000602082015250565b6000610e3260258361099e565b9150610e3d82610dd6565b604082019050919050565b60006020820190508181036000830152610e6181610e25565b9050919050565b7f4f6e6c79207468652073656c6c65722063616e206c697374207468652070726f60008201527f6475637400000000000000000000000000000000000000000000000000000000602082015250565b6000610ec460248361099e565b9150610ecf82610e68565b604082019050919050565b60006020820190508181036000830152610ef381610eb7565b9050919050565b7f50726f6475637420646f6573206e6f74206578697374206f7220697320616c7260008201527f6561647920736f6c640000000000000000000000000000000000000000000000602082015250565b6000610f5660298361099e565b9150610f6182610efa565b604082019050919050565b60006020820190508181036000830152610f8581610f49565b9050919050565b7f4e6f7420656e6f756768207175616e7469747920617661696c61626c65000000600082015250565b6000610fc2601d8361099e565b9150610fcd82610f8c565b602082019050919050565b60006020820190508181036000830152610ff181610fb5565b9050919050565b7f4e487b7100000000000000000000000000000000000000000000000000000000600052601160045260246000fd5b600061103282610921565b915061103d83610921565b925082820390508181111561105557611054610ff8565b5b92915050565b60008190508160005260206000209050919050565b6000815461107d81610da5565b611087818661099e565b945060018216600081146110a257600181146110b8576110eb565b60ff1983168652811515602002860193506110eb565b6110c18561105b565b60005b838110156110e3578154818901526001820191506020810190506110c4565b808801955050505b50505092915050565b600060a0820190506111096000830188610984565b818103602083015261111b8187611070565b905061112a6040830186610984565b6111376060830185610984565b6111446080830184610b1d565b9695505050505050565b7f4f6e6c7920746865206f776e65722063616e2063616c6c20746869732066756e60008201527f6374696f6e000000000000000000000000000000000000000000000000000000602082015250565b60006111aa60258361099e565b91506111b58261114e565b604082019050919050565b600060208201905081810360008301526111d98161119d565b9050919050565b7f50726f64756374206e616d652063616e6e6f7420626520656d70747900000000600082015250565b6000611216601c8361099e565b9150611221826111e0565b602082019050919050565b6000602082019050818103600083015261124581611209565b9050919050565b7f50726f64756374206465736372697074696f6e2063616e6e6f7420626520656d60008201527f7074790000000000000000000000000000000000000000000000000000000000602082015250565b60006112a860238361099e565b91506112b38261124c565b604082019050919050565b600060208201905081810360008301526112d78161129b565b9050919050565b7f50726f64756374207072696365206d757374206265206772656174657220746860008201527f616e203000000000000000000000000000000000000000000000000000000000602082015250565b600061133a60248361099e565b9150611345826112de565b604082019050919050565b600060208201905081810360008301526113698161132d565b9050919050565b7f50726f64756374207175616e74697479206d757374206265206772656174657260008201527f207468616e203000000000000000000000000000000000000000000000000000602082015250565b60006113cc60278361099e565b91506113d782611370565b604082019050919050565b600060208201905081810360008301526113fb816113bf565b9050919050565b600061140d82610921565b91507fffffffffffffffffffffffffffffffffffffffffffffffffffffffffffffffff820361143f5761143e610ff8565b5b600182019050919050565b60006020601f8301049050919050565b600082821b905092915050565b6000600883026114977fffffffffffffffffffffffffffffffffffffffffffffffffffffffffffffffff8261145a565b6114a1868361145a565b95508019841693508086168417925050509392505050565b6000819050919050565b60006114de6114d96114d484610921565b6114b9565b610921565b9050919050565b6000819050919050565b6114f8836114c3565b61150c611504826114e5565b848454611467565b825550505050565b600090565b611521611514565b61152c8184846114ef565b505050565b5b8181101561155057611545600082611519565b600181019050611532565b5050565b601f821115611595576115668161105b565b61156f8461144a565b8101602085101561157e578190505b61159261158a8561144a565b830182611531565b50505b505050565b600082821c905092915050565b60006115b86000198460080261159a565b1980831691505092915050565b60006115d183836115a7565b9150826002028217905092915050565b6115ea82610993565b67ffffffffffffffff81111561160357611602610b91565b5b61160d8254610da5565b611618828285611554565b600060209050601f83116001811461164b5760008415611639578287015190505b61164385826115c5565b8655506116ab565b601f1984166116598661105b565b60005b828110156116815784890151825560018201915060208501945060208101905061165c565b8683101561169e578489015161169a601f8916826115a7565b8355505b6001600288020188555050505b505050505050565b600060a0820190506116c86000830188610984565b81810360208301526116da81876109ea565b90506116e96040830186610984565b6116f66060830185610984565b6117036080830184610b1d565b969550505050505056fea2646970667358221220e1149e3502cd9c0e646e4de5a53f6b3f6853bb328a17f2c69e81a528fa6ab0c964736f6c63430008120033","opcodes":"PUSH1 0x80 PUSH1 0x40 MSTORE CALLVALUE DUP1 ISZERO PUSH2 0x10 JUMPI PUSH1 0x0 DUP1 REVERT JUMPDEST POP CALLER PUSH1 0x0 DUP1 PUSH2 0x100 EXP DUP2 SLOAD DUP2 PUSH20 0xFFFFFFFFFFFFFFFFFFFFFFFFFFFFFFFFFFFFFFFF MUL NOT AND SWAP1 DUP4 PUSH20 0xFFFFFFFFFFFFFFFFFFFFFFFFFFFFFFFFFFFFFFFF AND MUL OR SWAP1 SSTORE POP PUSH2 0x1743 DUP1 PUSH2 0x60 PUSH1 0x0 CODECOPY PUSH1 0x0 RETURN INVALID PUSH1 0x80 PUSH1 0x40 MSTORE CALLVALUE DUP1 ISZERO PUSH2 0x10 JUMPI PUSH1 0x0 DUP1 REVERT JUMPDEST POP PUSH1 0x4 CALLDATASIZE LT PUSH2 0x62 JUMPI PUSH1 0x0 CALLDATALOAD PUSH1 0xE0 SHR DUP1 PUSH4 0x7ACC0B20 EQ PUSH2 0x67 JUMPI DUP1 PUSH4 0x8890FE98 EQ PUSH2 0x9E JUMPI DUP1 PUSH4 0x8DA5CB5B EQ PUSH2 0xBA JUMPI DUP1 PUSH4 0xA0440426 EQ PUSH2 0xD8 JUMPI DUP1 PUSH4 0xC38F01AA EQ PUSH2 0xF4 JUMPI DUP1 PUSH4 0xE0F6EF87 EQ PUSH2 0x110 JUMPI JUMPDEST PUSH1 0x0 DUP1 REVERT JUMPDEST PUSH2 0x81 PUSH1 0x4 DUP1 CALLDATASIZE SUB DUP2 ADD SWAP1 PUSH2 0x7C SWAP2 SWAP1 PUSH2 0x957 JUMP JUMPDEST PUSH2 0x12E JUMP JUMPDEST PUSH1 0x40 MLOAD PUSH2 0x95 SWAP9 SWAP8 SWAP7 SWAP6 SWAP5 SWAP4 SWAP3 SWAP2 SWAP1 PUSH2 0xA7F JUMP JUMPDEST PUSH1 0x40 MLOAD DUP1 SWAP2 SUB SWAP1 RETURN JUMPDEST PUSH2 0xB8 PUSH1 0x4 DUP1 CALLDATASIZE SUB DUP2 ADD SWAP1 PUSH2 0xB3 SWAP2 SWAP1 PUSH2 0x957 JUMP JUMPDEST PUSH2 0x2D3 JUMP JUMPDEST STOP JUMPDEST PUSH2 0xC2 PUSH2 0x442 JUMP JUMPDEST PUSH1 0x40 MLOAD PUSH2 0xCF SWAP2 SWAP1 PUSH2 0xB2C JUMP JUMPDEST PUSH1 0x40 MLOAD DUP1 SWAP2 SUB SWAP1 RETURN JUMPDEST PUSH2 0xF2 PUSH1 0x4 DUP1 CALLDATASIZE SUB DUP2 ADD SWAP1 PUSH2 0xED SWAP2 SWAP1 PUSH2 0xB47 JUMP JUMPDEST PUSH2 0x466 JUMP JUMPDEST STOP JUMPDEST PUSH2 0x10E PUSH1 0x4 DUP1 CALLDATASIZE SUB DUP2 ADD SWAP1 PUSH2 0x109 SWAP2 SWAP1 PUSH2 0xCBC JUMP JUMPDEST PUSH2 0x590 JUMP JUMPDEST STOP JUMPDEST PUSH2 0x118 PUSH2 0x907 JUMP JUMPDEST PUSH1 0x40 MLOAD PUSH2 0x125 SWAP2 SWAP1 PUSH2 0xD5B JUMP JUMPDEST PUSH1 0x40 MLOAD DUP1 SWAP2 SUB SWAP1 RETURN JUMPDEST PUSH1 0x2 PUSH1 0x20 MSTORE DUP1 PUSH1 0x0 MSTORE PUSH1 0x40 PUSH1 0x0 KECCAK256 PUSH1 0x0 SWAP2 POP SWAP1 POP DUP1 PUSH1 0x0 ADD SLOAD SWAP1 DUP1 PUSH1 0x1 ADD DUP1 SLOAD PUSH2 0x157 SWAP1 PUSH2 0xDA5 JUMP JUMPDEST DUP1 PUSH1 0x1F ADD PUSH1 0x20 DUP1 SWAP2 DIV MUL PUSH1 0x20 ADD PUSH1 0x40 MLOAD SWAP1 DUP2 ADD PUSH1 0x40 MSTORE DUP1 SWAP3 SWAP2 SWAP1 DUP2 DUP2 MSTORE PUSH1 0x20 ADD DUP3 DUP1 SLOAD PUSH2 0x183 SWAP1 PUSH2 0xDA5 JUMP JUMPDEST DUP1 ISZERO PUSH2 0x1D0 JUMPI DUP1 PUSH1 0x1F LT PUSH2 0x1A5 JUMPI PUSH2 0x100 DUP1 DUP4 SLOAD DIV MUL DUP4 MSTORE SWAP2 PUSH1 0x20 ADD SWAP2 PUSH2 0x1D0 JUMP JUMPDEST DUP3 ADD SWAP2 SWAP1 PUSH1 0x0 MSTORE PUSH1 0x20 PUSH1 0x0 KECCAK256 SWAP1 JUMPDEST DUP2 SLOAD DUP2 MSTORE SWAP1 PUSH1 0x1 ADD SWAP1 PUSH1 0x20 ADD DUP1 DUP4 GT PUSH2 0x1B3 JUMPI DUP3 SWAP1 SUB PUSH1 0x1F AND DUP3 ADD SWAP2 JUMPDEST POP POP POP POP POP SWAP1 DUP1 PUSH1 0x2 ADD DUP1 SLOAD PUSH2 0x1E5 SWAP1 PUSH2 0xDA5 JUMP JUMPDEST DUP1 PUSH1 0x1F ADD PUSH1 0x20 DUP1 SWAP2 DIV MUL PUSH1 0x20 ADD PUSH1 0x40 MLOAD SWAP1 DUP2 ADD PUSH1 0x40 MSTORE DUP1 SWAP3 SWAP2 SWAP1 DUP2 DUP2 MSTORE PUSH1 0x20 ADD DUP3 DUP1 SLOAD PUSH2 0x211 SWAP1 PUSH2 0xDA5 JUMP JUMPDEST DUP1 ISZERO PUSH2 0x25E JUMPI DUP1 PUSH1 0x1F LT PUSH2 0x233 JUMPI PUSH2 0x100 DUP1 DUP4 SLOAD DIV MUL DUP4 MSTORE SWAP2 PUSH1 0x20 ADD SWAP2 PUSH2 0x25E JUMP JUMPDEST DUP3 ADD SWAP2 SWAP1 PUSH1 0x0 MSTORE PUSH1 0x20 PUSH1 0x0 KECCAK256 SWAP1 JUMPDEST DUP2 SLOAD DUP2 MSTORE SWAP1 PUSH1 0x1 ADD SWAP1 PUSH1 0x20 ADD DUP1 DUP4 GT PUSH2 0x241 JUMPI DUP3 SWAP1 SUB PUSH1 0x1F AND DUP3 ADD SWAP2 JUMPDEST POP POP POP POP POP SWAP1 DUP1 PUSH1 0x3 ADD SLOAD SWAP1 DUP1 PUSH1 0x4 ADD SLOAD SWAP1 DUP1 PUSH1 0x5 ADD PUSH1 0x0 SWAP1 SLOAD SWAP1 PUSH2 0x100 EXP SWAP1 DIV PUSH20 0xFFFFFFFFFFFFFFFFFFFFFFFFFFFFFFFFFFFFFFFF AND SWAP1 DUP1 PUSH1 0x6 ADD PUSH1 0x0 SWAP1 SLOAD SWAP1 PUSH2 0x100 EXP SWAP1 DIV PUSH20 0xFFFFFFFFFFFFFFFFFFFFFFFFFFFFFFFFFFFFFFFF AND SWAP1 DUP1 PUSH1 0x6 ADD PUSH1 0x14 SWAP1 SLOAD SWAP1 PUSH2 0x100 EXP SWAP1 DIV PUSH1 0xFF AND SWAP1 POP DUP9 JUMP JUMPDEST PUSH1 0x0 PUSH1 0x2 PUSH1 0x0 DUP4 DUP2 MSTORE PUSH1 0x20 ADD SWAP1 DUP2 MSTORE PUSH1 0x20 ADD PUSH1 0x0 KECCAK256 SWAP1 POP PUSH1 0x0 DUP2 PUSH1 0x0 ADD SLOAD GT DUP1 ISZERO PUSH2 0x30C JUMPI POP DUP1 PUSH1 0x6 ADD PUSH1 0x14 SWAP1 SLOAD SWAP1 PUSH2 0x100 EXP SWAP1 DIV PUSH1 0xFF AND JUMPDEST PUSH2 0x34B JUMPI PUSH1 0x40 MLOAD PUSH32 0x8C379A000000000000000000000000000000000000000000000000000000000 DUP2 MSTORE PUSH1 0x4 ADD PUSH2 0x342 SWAP1 PUSH2 0xE48 JUMP JUMPDEST PUSH1 0x40 MLOAD DUP1 SWAP2 SUB SWAP1 REVERT JUMPDEST DUP1 PUSH1 0x5 ADD PUSH1 0x0 SWAP1 SLOAD SWAP1 PUSH2 0x100 EXP SWAP1 DIV PUSH20 0xFFFFFFFFFFFFFFFFFFFFFFFFFFFFFFFFFFFFFFFF AND PUSH20 0xFFFFFFFFFFFFFFFFFFFFFFFFFFFFFFFFFFFFFFFF AND CALLER PUSH20 0xFFFFFFFFFFFFFFFFFFFFFFFFFFFFFFFFFFFFFFFF AND EQ PUSH2 0x3DD JUMPI PUSH1 0x40 MLOAD PUSH32 0x8C379A000000000000000000000000000000000000000000000000000000000 DUP2 MSTORE PUSH1 0x4 ADD PUSH2 0x3D4 SWAP1 PUSH2 0xEDA JUMP JUMPDEST PUSH1 0x40 MLOAD DUP1 SWAP2 SUB SWAP1 REVERT JUMPDEST PUSH1 0x0 DUP2 PUSH1 0x6 ADD PUSH1 0x14 PUSH2 0x100 EXP DUP2 SLOAD DUP2 PUSH1 0xFF MUL NOT AND SWAP1 DUP4 ISZERO ISZERO MUL OR SWAP1 SSTORE POP PUSH1 0x0 DUP2 PUSH1 0x6 ADD PUSH1 0x0 PUSH2 0x100 EXP DUP2 SLOAD DUP2 PUSH20 0xFFFFFFFFFFFFFFFFFFFFFFFFFFFFFFFFFFFFFFFF MUL NOT AND SWAP1 DUP4 PUSH20 0xFFFFFFFFFFFFFFFFFFFFFFFFFFFFFFFFFFFFFFFF AND MUL OR SWAP1 SSTORE POP POP POP JUMP JUMPDEST PUSH1 0x0 DUP1 SLOAD SWAP1 PUSH2 0x100 EXP SWAP1 DIV PUSH20 0xFFFFFFFFFFFFFFFFFFFFFFFFFFFFFFFFFFFFFFFF AND DUP2 JUMP JUMPDEST PUSH1 0x0 PUSH1 0x2 PUSH1 0x0 DUP5 DUP2 MSTORE PUSH1 0x20 ADD SWAP1 DUP2 MSTORE PUSH1 0x20 ADD PUSH1 0x0 KECCAK256 SWAP1 POP PUSH1 0x0 DUP2 PUSH1 0x0 ADD SLOAD GT DUP1 ISZERO PUSH2 0x4A0 JUMPI POP DUP1 PUSH1 0x6 ADD PUSH1 0x14 SWAP1 SLOAD SWAP1 PUSH2 0x100 EXP SWAP1 DIV PUSH1 0xFF AND ISZERO JUMPDEST PUSH2 0x4DF JUMPI PUSH1 0x40 MLOAD PUSH32 0x8C379A000000000000000000000000000000000000000000000000000000000 DUP2 MSTORE PUSH1 0x4 ADD PUSH2 0x4D6 SWAP1 PUSH2 0xF6C JUMP JUMPDEST PUSH1 0x40 MLOAD DUP1 SWAP2 SUB SWAP1 REVERT JUMPDEST DUP1 PUSH1 0x4 ADD SLOAD DUP3 GT ISZERO PUSH2 0x526 JUMPI PUSH1 0x40 MLOAD PUSH32 0x8C379A000000000000000000000000000000000000000000000000000000000 DUP2 MSTORE PUSH1 0x4 ADD PUSH2 0x51D SWAP1 PUSH2 0xFD8 JUMP JUMPDEST PUSH1 0x40 MLOAD DUP1 SWAP2 SUB SWAP1 REVERT JUMPDEST DUP2 DUP2 PUSH1 0x4 ADD PUSH1 0x0 DUP3 DUP3 SLOAD PUSH2 0x53A SWAP2 SWAP1 PUSH2 0x1027 JUMP JUMPDEST SWAP3 POP POP DUP2 SWAP1 SSTORE POP PUSH32 0xD922A2FFFDE7C04EFB85E105CB4324B2EBE96919A6A107B6C63AFB85484B8DA9 DUP2 PUSH1 0x0 ADD SLOAD DUP3 PUSH1 0x1 ADD DUP4 PUSH1 0x3 ADD SLOAD DUP6 CALLER PUSH1 0x40 MLOAD PUSH2 0x583 SWAP6 SWAP5 SWAP4 SWAP3 SWAP2 SWAP1 PUSH2 0x10F4 JUMP JUMPDEST PUSH1 0x40 MLOAD DUP1 SWAP2 SUB SWAP1 LOG1 POP POP POP JUMP JUMPDEST PUSH1 0x0 DUP1 SLOAD SWAP1 PUSH2 0x100 EXP SWAP1 DIV PUSH20 0xFFFFFFFFFFFFFFFFFFFFFFFFFFFFFFFFFFFFFFFF AND PUSH20 0xFFFFFFFFFFFFFFFFFFFFFFFFFFFFFFFFFFFFFFFF AND CALLER PUSH20 0xFFFFFFFFFFFFFFFFFFFFFFFFFFFFFFFFFFFFFFFF AND EQ PUSH2 0x61E JUMPI PUSH1 0x40 MLOAD PUSH32 0x8C379A000000000000000000000000000000000000000000000000000000000 DUP2 MSTORE PUSH1 0x4 ADD PUSH2 0x615 SWAP1 PUSH2 0x11C0 JUMP JUMPDEST PUSH1 0x40 MLOAD DUP1 SWAP2 SUB SWAP1 REVERT JUMPDEST PUSH1 0x0 DUP5 MLOAD GT PUSH2 0x662 JUMPI PUSH1 0x40 MLOAD PUSH32 0x8C379A000000000000000000000000000000000000000000000000000000000 DUP2 MSTORE PUSH1 0x4 ADD PUSH2 0x659 SWAP1 PUSH2 0x122C JUMP JUMPDEST PUSH1 0x40 MLOAD DUP1 SWAP2 SUB SWAP1 REVERT JUMPDEST PUSH1 0x0 DUP4 MLOAD GT PUSH2 0x6A6 JUMPI PUSH1 0x40 MLOAD PUSH32 0x8C379A000000000000000000000000000000000000000000000000000000000 DUP2 MSTORE PUSH1 0x4 ADD PUSH2 0x69D SWAP1 PUSH2 0x12BE JUMP JUMPDEST PUSH1 0x40 MLOAD DUP1 SWAP2 SUB SWAP1 REVERT JUMPDEST PUSH1 0x0 DUP3 GT PUSH2 0x6E9 JUMPI PUSH1 0x40 MLOAD PUSH32 0x8C379A000000000000000000000000000000000000000000000000000000000 DUP2 MSTORE PUSH1 0x4 ADD PUSH2 0x6E0 SWAP1 PUSH2 0x1350 JUMP JUMPDEST PUSH1 0x40 MLOAD DUP1 SWAP2 SUB SWAP1 REVERT JUMPDEST PUSH1 0x0 DUP2 GT PUSH2 0x72C JUMPI PUSH1 0x40 MLOAD PUSH32 0x8C379A000000000000000000000000000000000000000000000000000000000 DUP2 MSTORE PUSH1 0x4 ADD PUSH2 0x723 SWAP1 PUSH2 0x13E2 JUMP JUMPDEST PUSH1 0x40 MLOAD DUP1 SWAP2 SUB SWAP1 REVERT JUMPDEST PUSH1 0x1 PUSH1 0x0 DUP2 SLOAD DUP1 SWAP3 SWAP2 SWAP1 PUSH2 0x73F SWAP1 PUSH2 0x1402 JUMP JUMPDEST SWAP2 SWAP1 POP SSTORE POP PUSH1 0x40 MLOAD DUP1 PUSH2 0x100 ADD PUSH1 0x40 MSTORE DUP1 PUSH1 0x1 SLOAD DUP2 MSTORE PUSH1 0x20 ADD DUP6 DUP2 MSTORE PUSH1 0x20 ADD DUP5 DUP2 MSTORE PUSH1 0x20 ADD DUP4 DUP2 MSTORE PUSH1 0x20 ADD DUP3 DUP2 MSTORE PUSH1 0x20 ADD CALLER PUSH20 0xFFFFFFFFFFFFFFFFFFFFFFFFFFFFFFFFFFFFFFFF AND DUP2 MSTORE PUSH1 0x20 ADD PUSH1 0x0 PUSH20 0xFFFFFFFFFFFFFFFFFFFFFFFFFFFFFFFFFFFFFFFF AND DUP2 MSTORE PUSH1 0x20 ADD PUSH1 0x0 ISZERO ISZERO DUP2 MSTORE POP PUSH1 0x2 PUSH1 0x0 PUSH1 0x1 SLOAD DUP2 MSTORE PUSH1 0x20 ADD SWAP1 DUP2 MSTORE PUSH1 0x20 ADD PUSH1 0x0 KECCAK256 PUSH1 0x0 DUP3 ADD MLOAD DUP2 PUSH1 0x0 ADD SSTORE PUSH1 0x20 DUP3 ADD MLOAD DUP2 PUSH1 0x1 ADD SWAP1 DUP2 PUSH2 0x7E4 SWAP2 SWAP1 PUSH2 0x15E1 JUMP JUMPDEST POP PUSH1 0x40 DUP3 ADD MLOAD DUP2 PUSH1 0x2 ADD SWAP1 DUP2 PUSH2 0x7FA SWAP2 SWAP1 PUSH2 0x15E1 JUMP JUMPDEST POP PUSH1 0x60 DUP3 ADD MLOAD DUP2 PUSH1 0x3 ADD SSTORE PUSH1 0x80 DUP3 ADD MLOAD DUP2 PUSH1 0x4 ADD SSTORE PUSH1 0xA0 DUP3 ADD MLOAD DUP2 PUSH1 0x5 ADD PUSH1 0x0 PUSH2 0x100 EXP DUP2 SLOAD DUP2 PUSH20 0xFFFFFFFFFFFFFFFFFFFFFFFFFFFFFFFFFFFFFFFF MUL NOT AND SWAP1 DUP4 PUSH20 0xFFFFFFFFFFFFFFFFFFFFFFFFFFFFFFFFFFFFFFFF AND MUL OR SWAP1 SSTORE POP PUSH1 0xC0 DUP3 ADD MLOAD DUP2 PUSH1 0x6 ADD PUSH1 0x0 PUSH2 0x100 EXP DUP2 SLOAD DUP2 PUSH20 0xFFFFFFFFFFFFFFFFFFFFFFFFFFFFFFFFFFFFFFFF MUL NOT AND SWAP1 DUP4 PUSH20 0xFFFFFFFFFFFFFFFFFFFFFFFFFFFFFFFFFFFFFFFF AND MUL OR SWAP1 SSTORE POP PUSH1 0xE0 DUP3 ADD MLOAD DUP2 PUSH1 0x6 ADD PUSH1 0x14 PUSH2 0x100 EXP DUP2 SLOAD DUP2 PUSH1 0xFF MUL NOT AND SWAP1 DUP4 ISZERO ISZERO MUL OR SWAP1 SSTORE POP SWAP1 POP POP PUSH32 0x75F809131C39228D740DA0B686206B8AE86548C72BFDC872DA71F4D4340301DE PUSH1 0x1 SLOAD DUP6 DUP5 DUP5 CALLER PUSH1 0x40 MLOAD PUSH2 0x8F9 SWAP6 SWAP5 SWAP4 SWAP3 SWAP2 SWAP1 PUSH2 0x16B3 JUMP JUMPDEST PUSH1 0x40 MLOAD DUP1 SWAP2 SUB SWAP1 LOG1 POP POP POP POP JUMP JUMPDEST PUSH1 0x1 SLOAD DUP2 JUMP JUMPDEST PUSH1 0x0 PUSH1 0x40 MLOAD SWAP1 POP SWAP1 JUMP JUMPDEST PUSH1 0x0 DUP1 REVERT JUMPDEST PUSH1 0x0 DUP1 REVERT JUMPDEST PUSH1 0x0 DUP2 SWAP1 POP SWAP2 SWAP1 POP JUMP JUMPDEST PUSH2 0x934 DUP2 PUSH2 0x921 JUMP JUMPDEST DUP2 EQ PUSH2 0x93F JUMPI PUSH1 0x0 DUP1 REVERT JUMPDEST POP JUMP JUMPDEST PUSH1 0x0 DUP2 CALLDATALOAD SWAP1 POP PUSH2 0x951 DUP2 PUSH2 0x92B JUMP JUMPDEST SWAP3 SWAP2 POP POP JUMP JUMPDEST PUSH1 0x0 PUSH1 0x20 DUP3 DUP5 SUB SLT ISZERO PUSH2 0x96D JUMPI PUSH2 0x96C PUSH2 0x917 JUMP JUMPDEST JUMPDEST PUSH1 0x0 PUSH2 0x97B DUP5 DUP3 DUP6 ADD PUSH2 0x942 JUMP JUMPDEST SWAP2 POP POP SWAP3 SWAP2 POP POP JUMP JUMPDEST PUSH2 0x98D DUP2 PUSH2 0x921 JUMP JUMPDEST DUP3 MSTORE POP POP JUMP JUMPDEST PUSH1 0x0 DUP2 MLOAD SWAP1 POP SWAP2 SWAP1 POP JUMP JUMPDEST PUSH1 0x0 DUP3 DUP3 MSTORE PUSH1 0x20 DUP3 ADD SWAP1 POP SWAP3 SWAP2 POP POP JUMP JUMPDEST PUSH1 0x0 JUMPDEST DUP4 DUP2 LT ISZERO PUSH2 0x9CD JUMPI DUP1 DUP3 ADD MLOAD DUP2 DUP5 ADD MSTORE PUSH1 0x20 DUP2 ADD SWAP1 POP PUSH2 0x9B2 JUMP JUMPDEST PUSH1 0x0 DUP5 DUP5 ADD MSTORE POP POP POP POP JUMP JUMPDEST PUSH1 0x0 PUSH1 0x1F NOT PUSH1 0x1F DUP4 ADD AND SWAP1 POP SWAP2 SWAP1 POP JUMP JUMPDEST PUSH1 0x0 PUSH2 0x9F5 DUP3 PUSH2 0x993 JUMP JUMPDEST PUSH2 0x9FF DUP2 DUP6 PUSH2 0x99E JUMP JUMPDEST SWAP4 POP PUSH2 0xA0F DUP2 DUP6 PUSH1 0x20 DUP7 ADD PUSH2 0x9AF JUMP JUMPDEST PUSH2 0xA18 DUP2 PUSH2 0x9D9 JUMP JUMPDEST DUP5 ADD SWAP2 POP POP SWAP3 SWAP2 POP POP JUMP JUMPDEST PUSH1 0x0 PUSH20 0xFFFFFFFFFFFFFFFFFFFFFFFFFFFFFFFFFFFFFFFF DUP3 AND SWAP1 POP SWAP2 SWAP1 POP JUMP JUMPDEST PUSH1 0x0 PUSH2 0xA4E DUP3 PUSH2 0xA23 JUMP JUMPDEST SWAP1 POP SWAP2 SWAP1 POP JUMP JUMPDEST PUSH2 0xA5E DUP2 PUSH2 0xA43 JUMP JUMPDEST DUP3 MSTORE POP POP JUMP JUMPDEST PUSH1 0x0 DUP2 ISZERO ISZERO SWAP1 POP SWAP2 SWAP1 POP JUMP JUMPDEST PUSH2 0xA79 DUP2 PUSH2 0xA64 JUMP JUMPDEST DUP3 MSTORE POP POP JUMP JUMPDEST PUSH1 0x0 PUSH2 0x100 DUP3 ADD SWAP1 POP PUSH2 0xA95 PUSH1 0x0 DUP4 ADD DUP12 PUSH2 0x984 JUMP JUMPDEST DUP2 DUP2 SUB PUSH1 0x20 DUP4 ADD MSTORE PUSH2 0xAA7 DUP2 DUP11 PUSH2 0x9EA JUMP JUMPDEST SWAP1 POP DUP2 DUP2 SUB PUSH1 0x40 DUP4 ADD MSTORE PUSH2 0xABB DUP2 DUP10 PUSH2 0x9EA JUMP JUMPDEST SWAP1 POP PUSH2 0xACA PUSH1 0x60 DUP4 ADD DUP9 PUSH2 0x984 JUMP JUMPDEST PUSH2 0xAD7 PUSH1 0x80 DUP4 ADD DUP8 PUSH2 0x984 JUMP JUMPDEST PUSH2 0xAE4 PUSH1 0xA0 DUP4 ADD DUP7 PUSH2 0xA55 JUMP JUMPDEST PUSH2 0xAF1 PUSH1 0xC0 DUP4 ADD DUP6 PUSH2 0xA55 JUMP JUMPDEST PUSH2 0xAFE PUSH1 0xE0 DUP4 ADD DUP5 PUSH2 0xA70 JUMP JUMPDEST SWAP10 SWAP9 POP POP POP POP POP POP POP POP POP JUMP JUMPDEST PUSH1 0x0 PUSH2 0xB16 DUP3 PUSH2 0xA23 JUMP JUMPDEST SWAP1 POP SWAP2 SWAP1 POP JUMP JUMPDEST PUSH2 0xB26 DUP2 PUSH2 0xB0B JUMP JUMPDEST DUP3 MSTORE POP POP JUMP JUMPDEST PUSH1 0x0 PUSH1 0x20 DUP3 ADD SWAP1 POP PUSH2 0xB41 PUSH1 0x0 DUP4 ADD DUP5 PUSH2 0xB1D JUMP JUMPDEST SWAP3 SWAP2 POP POP JUMP JUMPDEST PUSH1 0x0 DUP1 PUSH1 0x40 DUP4 DUP6 SUB SLT ISZERO PUSH2 0xB5E JUMPI PUSH2 0xB5D PUSH2 0x917 JUMP JUMPDEST JUMPDEST PUSH1 0x0 PUSH2 0xB6C DUP6 DUP3 DUP7 ADD PUSH2 0x942 JUMP JUMPDEST SWAP3 POP POP PUSH1 0x20 PUSH2 0xB7D DUP6 DUP3 DUP7 ADD PUSH2 0x942 JUMP JUMPDEST SWAP2 POP POP SWAP3 POP SWAP3 SWAP1 POP JUMP JUMPDEST PUSH1 0x0 DUP1 REVERT JUMPDEST PUSH1 0x0 DUP1 REVERT JUMPDEST PUSH32 0x4E487B7100000000000000000000000000000000000000000000000000000000 PUSH1 0x0 MSTORE PUSH1 0x41 PUSH1 0x4 MSTORE PUSH1 0x24 PUSH1 0x0 REVERT JUMPDEST PUSH2 0xBC9 DUP3 PUSH2 0x9D9 JUMP JUMPDEST DUP2 ADD DUP2 DUP2 LT PUSH8 0xFFFFFFFFFFFFFFFF DUP3 GT OR ISZERO PUSH2 0xBE8 JUMPI PUSH2 0xBE7 PUSH2 0xB91 JUMP JUMPDEST JUMPDEST DUP1 PUSH1 0x40 MSTORE POP POP POP JUMP JUMPDEST PUSH1 0x0 PUSH2 0xBFB PUSH2 0x90D JUMP JUMPDEST SWAP1 POP PUSH2 0xC07 DUP3 DUP3 PUSH2 0xBC0 JUMP JUMPDEST SWAP2 SWAP1 POP JUMP JUMPDEST PUSH1 0x0 PUSH8 0xFFFFFFFFFFFFFFFF DUP3 GT ISZERO PUSH2 0xC27 JUMPI PUSH2 0xC26 PUSH2 0xB91 JUMP JUMPDEST JUMPDEST PUSH2 0xC30 DUP3 PUSH2 0x9D9 JUMP JUMPDEST SWAP1 POP PUSH1 0x20 DUP2 ADD SWAP1 POP SWAP2 SWAP1 POP JUMP JUMPDEST DUP3 DUP2 DUP4 CALLDATACOPY PUSH1 0x0 DUP4 DUP4 ADD MSTORE POP POP POP JUMP JUMPDEST PUSH1 0x0 PUSH2 0xC5F PUSH2 0xC5A DUP5 PUSH2 0xC0C JUMP JUMPDEST PUSH2 0xBF1 JUMP JUMPDEST SWAP1 POP DUP3 DUP2 MSTORE PUSH1 0x20 DUP2 ADD DUP5 DUP5 DUP5 ADD GT ISZERO PUSH2 0xC7B JUMPI PUSH2 0xC7A PUSH2 0xB8C JUMP JUMPDEST JUMPDEST PUSH2 0xC86 DUP5 DUP3 DUP6 PUSH2 0xC3D JUMP JUMPDEST POP SWAP4 SWAP3 POP POP POP JUMP JUMPDEST PUSH1 0x0 DUP3 PUSH1 0x1F DUP4 ADD SLT PUSH2 0xCA3 JUMPI PUSH2 0xCA2 PUSH2 0xB87 JUMP JUMPDEST JUMPDEST DUP2 CALLDATALOAD PUSH2 0xCB3 DUP5 DUP3 PUSH1 0x20 DUP7 ADD PUSH2 0xC4C JUMP JUMPDEST SWAP2 POP POP SWAP3 SWAP2 POP POP JUMP JUMPDEST PUSH1 0x0 DUP1 PUSH1 0x0 DUP1 PUSH1 0x80 DUP6 DUP8 SUB SLT ISZERO PUSH2 0xCD6 JUMPI PUSH2 0xCD5 PUSH2 0x917 JUMP JUMPDEST JUMPDEST PUSH1 0x0 DUP6 ADD CALLDATALOAD PUSH8 0xFFFFFFFFFFFFFFFF DUP2 GT ISZERO PUSH2 0xCF4 JUMPI PUSH2 0xCF3 PUSH2 0x91C JUMP JUMPDEST JUMPDEST PUSH2 0xD00 DUP8 DUP3 DUP9 ADD PUSH2 0xC8E JUMP JUMPDEST SWAP5 POP POP PUSH1 0x20 DUP6 ADD CALLDATALOAD PUSH8 0xFFFFFFFFFFFFFFFF DUP2 GT ISZERO PUSH2 0xD21 JUMPI PUSH2 0xD20 PUSH2 0x91C JUMP JUMPDEST JUMPDEST PUSH2 0xD2D DUP8 DUP3 DUP9 ADD PUSH2 0xC8E JUMP JUMPDEST SWAP4 POP POP PUSH1 0x40 PUSH2 0xD3E DUP8 DUP3 DUP9 ADD PUSH2 0x942 JUMP JUMPDEST SWAP3 POP POP PUSH1 0x60 PUSH2 0xD4F DUP8 DUP3 DUP9 ADD PUSH2 0x942 JUMP JUMPDEST SWAP2 POP POP SWAP3 SWAP6 SWAP2 SWAP5 POP SWAP3 POP JUMP JUMPDEST PUSH1 0x0 PUSH1 0x20 DUP3 ADD SWAP1 POP PUSH2 0xD70 PUSH1 0x0 DUP4 ADD DUP5 PUSH2 0x984 JUMP JUMPDEST SWAP3 SWAP2 POP POP JUMP JUMPDEST PUSH32 0x4E487B7100000000000000000000000000000000000000000000000000000000 PUSH1 0x0 MSTORE PUSH1 0x22 PUSH1 0x4 MSTORE PUSH1 0x24 PUSH1 0x0 REVERT JUMPDEST PUSH1 0x0 PUSH1 0x2 DUP3 DIV SWAP1 POP PUSH1 0x1 DUP3 AND DUP1 PUSH2 0xDBD JUMPI PUSH1 0x7F DUP3 AND SWAP2 POP JUMPDEST PUSH1 0x20 DUP3 LT DUP2 SUB PUSH2 0xDD0 JUMPI PUSH2 0xDCF PUSH2 0xD76 JUMP JUMPDEST JUMPDEST POP SWAP2 SWAP1 POP JUMP JUMPDEST PUSH32 0x50726F6475637420646F6573206E6F74206578697374206F72206973206E6F74 PUSH1 0x0 DUP3 ADD MSTORE PUSH32 0x20736F6C64000000000000000000000000000000000000000000000000000000 PUSH1 0x20 DUP3 ADD MSTORE POP JUMP JUMPDEST PUSH1 0x0 PUSH2 0xE32 PUSH1 0x25 DUP4 PUSH2 0x99E JUMP JUMPDEST SWAP2 POP PUSH2 0xE3D DUP3 PUSH2 0xDD6 JUMP JUMPDEST PUSH1 0x40 DUP3 ADD SWAP1 POP SWAP2 SWAP1 POP JUMP JUMPDEST PUSH1 0x0 PUSH1 0x20 DUP3 ADD SWAP1 POP DUP2 DUP2 SUB PUSH1 0x0 DUP4 ADD MSTORE PUSH2 0xE61 DUP2 PUSH2 0xE25 JUMP JUMPDEST SWAP1 POP SWAP2 SWAP1 POP JUMP JUMPDEST PUSH32 0x4F6E6C79207468652073656C6C65722063616E206C697374207468652070726F PUSH1 0x0 DUP3 ADD MSTORE PUSH32 0x6475637400000000000000000000000000000000000000000000000000000000 PUSH1 0x20 DUP3 ADD MSTORE POP JUMP JUMPDEST PUSH1 0x0 PUSH2 0xEC4 PUSH1 0x24 DUP4 PUSH2 0x99E JUMP JUMPDEST SWAP2 POP PUSH2 0xECF DUP3 PUSH2 0xE68 JUMP JUMPDEST PUSH1 0x40 DUP3 ADD SWAP1 POP SWAP2 SWAP1 POP JUMP JUMPDEST PUSH1 0x0 PUSH1 0x20 DUP3 ADD SWAP1 POP DUP2 DUP2 SUB PUSH1 0x0 DUP4 ADD MSTORE PUSH2 0xEF3 DUP2 PUSH2 0xEB7 JUMP JUMPDEST SWAP1 POP SWAP2 SWAP1 POP JUMP JUMPDEST PUSH32 0x50726F6475637420646F6573206E6F74206578697374206F7220697320616C72 PUSH1 0x0 DUP3 ADD MSTORE PUSH32 0x6561647920736F6C640000000000000000000000000000000000000000000000 PUSH1 0x20 DUP3 ADD MSTORE POP JUMP JUMPDEST PUSH1 0x0 PUSH2 0xF56 PUSH1 0x29 DUP4 PUSH2 0x99E JUMP JUMPDEST SWAP2 POP PUSH2 0xF61 DUP3 PUSH2 0xEFA JUMP JUMPDEST PUSH1 0x40 DUP3 ADD SWAP1 POP SWAP2 SWAP1 POP JUMP JUMPDEST PUSH1 0x0 PUSH1 0x20 DUP3 ADD SWAP1 POP DUP2 DUP2 SUB PUSH1 0x0 DUP4 ADD MSTORE PUSH2 0xF85 DUP2 PUSH2 0xF49 JUMP JUMPDEST SWAP1 POP SWAP2 SWAP1 POP JUMP JUMPDEST PUSH32 0x4E6F7420656E6F756768207175616E7469747920617661696C61626C65000000 PUSH1 0x0 DUP3 ADD MSTORE POP JUMP JUMPDEST PUSH1 0x0 PUSH2 0xFC2 PUSH1 0x1D DUP4 PUSH2 0x99E JUMP JUMPDEST SWAP2 POP PUSH2 0xFCD DUP3 PUSH2 0xF8C JUMP JUMPDEST PUSH1 0x20 DUP3 ADD SWAP1 POP SWAP2 SWAP1 POP JUMP JUMPDEST PUSH1 0x0 PUSH1 0x20 DUP3 ADD SWAP1 POP DUP2 DUP2 SUB PUSH1 0x0 DUP4 ADD MSTORE PUSH2 0xFF1 DUP2 PUSH2 0xFB5 JUMP JUMPDEST SWAP1 POP SWAP2 SWAP1 POP JUMP JUMPDEST PUSH32 0x4E487B7100000000000000000000000000000000000000000000000000000000 PUSH1 0x0 MSTORE PUSH1 0x11 PUSH1 0x4 MSTORE PUSH1 0x24 PUSH1 0x0 REVERT JUMPDEST PUSH1 0x0 PUSH2 0x1032 DUP3 PUSH2 0x921 JUMP JUMPDEST SWAP2 POP PUSH2 0x103D DUP4 PUSH2 0x921 JUMP JUMPDEST SWAP3 POP DUP3 DUP3 SUB SWAP1 POP DUP2 DUP2 GT ISZERO PUSH2 0x1055 JUMPI PUSH2 0x1054 PUSH2 0xFF8 JUMP JUMPDEST JUMPDEST SWAP3 SWAP2 POP POP JUMP JUMPDEST PUSH1 0x0 DUP2 SWAP1 POP DUP2 PUSH1 0x0 MSTORE PUSH1 0x20 PUSH1 0x0 KECCAK256 SWAP1 POP SWAP2 SWAP1 POP JUMP JUMPDEST PUSH1 0x0 DUP2 SLOAD PUSH2 0x107D DUP2 PUSH2 0xDA5 JUMP JUMPDEST PUSH2 0x1087 DUP2 DUP7 PUSH2 0x99E JUMP JUMPDEST SWAP5 POP PUSH1 0x1 DUP3 AND PUSH1 0x0 DUP2 EQ PUSH2 0x10A2 JUMPI PUSH1 0x1 DUP2 EQ PUSH2 0x10B8 JUMPI PUSH2 0x10EB JUMP JUMPDEST PUSH1 0xFF NOT DUP4 AND DUP7 MSTORE DUP2 ISZERO ISZERO PUSH1 0x20 MUL DUP7 ADD SWAP4 POP PUSH2 0x10EB JUMP JUMPDEST PUSH2 0x10C1 DUP6 PUSH2 0x105B JUMP JUMPDEST PUSH1 0x0 JUMPDEST DUP4 DUP2 LT ISZERO PUSH2 0x10E3 JUMPI DUP2 SLOAD DUP2 DUP10 ADD MSTORE PUSH1 0x1 DUP3 ADD SWAP2 POP PUSH1 0x20 DUP2 ADD SWAP1 POP PUSH2 0x10C4 JUMP JUMPDEST DUP1 DUP9 ADD SWAP6 POP POP POP JUMPDEST POP POP POP SWAP3 SWAP2 POP POP JUMP JUMPDEST PUSH1 0x0 PUSH1 0xA0 DUP3 ADD SWAP1 POP PUSH2 0x1109 PUSH1 0x0 DUP4 ADD DUP9 PUSH2 0x984 JUMP JUMPDEST DUP2 DUP2 SUB PUSH1 0x20 DUP4 ADD MSTORE PUSH2 0x111B DUP2 DUP8 PUSH2 0x1070 JUMP JUMPDEST SWAP1 POP PUSH2 0x112A PUSH1 0x40 DUP4 ADD DUP7 PUSH2 0x984 JUMP JUMPDEST PUSH2 0x1137 PUSH1 0x60 DUP4 ADD DUP6 PUSH2 0x984 JUMP JUMPDEST PUSH2 0x1144 PUSH1 0x80 DUP4 ADD DUP5 PUSH2 0xB1D JUMP JUMPDEST SWAP7 SWAP6 POP POP POP POP POP POP JUMP JUMPDEST PUSH32 0x4F6E6C7920746865206F776E65722063616E2063616C6C20746869732066756E PUSH1 0x0 DUP3 ADD MSTORE PUSH32 0x6374696F6E000000000000000000000000000000000000000000000000000000 PUSH1 0x20 DUP3 ADD MSTORE POP JUMP JUMPDEST PUSH1 0x0 PUSH2 0x11AA PUSH1 0x25 DUP4 PUSH2 0x99E JUMP JUMPDEST SWAP2 POP PUSH2 0x11B5 DUP3 PUSH2 0x114E JUMP JUMPDEST PUSH1 0x40 DUP3 ADD SWAP1 POP SWAP2 SWAP1 POP JUMP JUMPDEST PUSH1 0x0 PUSH1 0x20 DUP3 ADD SWAP1 POP DUP2 DUP2 SUB PUSH1 0x0 DUP4 ADD MSTORE PUSH2 0x11D9 DUP2 PUSH2 0x119D JUMP JUMPDEST SWAP1 POP SWAP2 SWAP1 POP JUMP JUMPDEST PUSH32 0x50726F64756374206E616D652063616E6E6F7420626520656D70747900000000 PUSH1 0x0 DUP3 ADD MSTORE POP JUMP JUMPDEST PUSH1 0x0 PUSH2 0x1216 PUSH1 0x1C DUP4 PUSH2 0x99E JUMP JUMPDEST SWAP2 POP PUSH2 0x1221 DUP3 PUSH2 0x11E0 JUMP JUMPDEST PUSH1 0x20 DUP3 ADD SWAP1 POP SWAP2 SWAP1 POP JUMP JUMPDEST PUSH1 0x0 PUSH1 0x20 DUP3 ADD SWAP1 POP DUP2 DUP2 SUB PUSH1 0x0 DUP4 ADD MSTORE PUSH2 0x1245 DUP2 PUSH2 0x1209 JUMP JUMPDEST SWAP1 POP SWAP2 SWAP1 POP JUMP JUMPDEST PUSH32 0x50726F64756374206465736372697074696F6E2063616E6E6F7420626520656D PUSH1 0x0 DUP3 ADD MSTORE PUSH32 0x7074790000000000000000000000000000000000000000000000000000000000 PUSH1 0x20 DUP3 ADD MSTORE POP JUMP JUMPDEST PUSH1 0x0 PUSH2 0x12A8 PUSH1 0x23 DUP4 PUSH2 0x99E JUMP JUMPDEST SWAP2 POP PUSH2 0x12B3 DUP3 PUSH2 0x124C JUMP JUMPDEST PUSH1 0x40 DUP3 ADD SWAP1 POP SWAP2 SWAP1 POP JUMP JUMPDEST PUSH1 0x0 PUSH1 0x20 DUP3 ADD SWAP1 POP DUP2 DUP2 SUB PUSH1 0x0 DUP4 ADD MSTORE PUSH2 0x12D7 DUP2 PUSH2 0x129B JUMP JUMPDEST SWAP1 POP SWAP2 SWAP1 POP JUMP JUMPDEST PUSH32 0x50726F64756374207072696365206D7573742062652067726561746572207468 PUSH1 0x0 DUP3 ADD MSTORE PUSH32 0x616E203000000000000000000000000000000000000000000000000000000000 PUSH1 0x20 DUP3 ADD MSTORE POP JUMP JUMPDEST PUSH1 0x0 PUSH2 0x133A PUSH1 0x24 DUP4 PUSH2 0x99E JUMP JUMPDEST SWAP2 POP PUSH2 0x1345 DUP3 PUSH2 0x12DE JUMP JUMPDEST PUSH1 0x40 DUP3 ADD SWAP1 POP SWAP2 SWAP1 POP JUMP JUMPDEST PUSH1 0x0 PUSH1 0x20 DUP3 ADD SWAP1 POP DUP2 DUP2 SUB PUSH1 0x0 DUP4 ADD MSTORE PUSH2 0x1369 DUP2 PUSH2 0x132D JUMP JUMPDEST SWAP1 POP SWAP2 SWAP1 POP JUMP JUMPDEST PUSH32 0x50726F64756374207175616E74697479206D7573742062652067726561746572 PUSH1 0x0 DUP3 ADD MSTORE PUSH32 0x207468616E203000000000000000000000000000000000000000000000000000 PUSH1 0x20 DUP3 ADD MSTORE POP JUMP JUMPDEST PUSH1 0x0 PUSH2 0x13CC PUSH1 0x27 DUP4 PUSH2 0x99E JUMP JUMPDEST SWAP2 POP PUSH2 0x13D7 DUP3 PUSH2 0x1370 JUMP JUMPDEST PUSH1 0x40 DUP3 ADD SWAP1 POP SWAP2 SWAP1 POP JUMP JUMPDEST PUSH1 0x0 PUSH1 0x20 DUP3 ADD SWAP1 POP DUP2 DUP2 SUB PUSH1 0x0 DUP4 ADD MSTORE PUSH2 0x13FB DUP2 PUSH2 0x13BF JUMP JUMPDEST SWAP1 POP SWAP2 SWAP1 POP JUMP JUMPDEST PUSH1 0x0 PUSH2 0x140D DUP3 PUSH2 0x921 JUMP JUMPDEST SWAP2 POP PUSH32 0xFFFFFFFFFFFFFFFFFFFFFFFFFFFFFFFFFFFFFFFFFFFFFFFFFFFFFFFFFFFFFFFF DUP3 SUB PUSH2 0x143F JUMPI PUSH2 0x143E PUSH2 0xFF8 JUMP JUMPDEST JUMPDEST PUSH1 0x1 DUP3 ADD SWAP1 POP SWAP2 SWAP1 POP JUMP JUMPDEST PUSH1 0x0 PUSH1 0x20 PUSH1 0x1F DUP4 ADD DIV SWAP1 POP SWAP2 SWAP1 POP JUMP JUMPDEST PUSH1 0x0 DUP3 DUP3 SHL SWAP1 POP SWAP3 SWAP2 POP POP JUMP JUMPDEST PUSH1 0x0 PUSH1 0x8 DUP4 MUL PUSH2 0x1497 PUSH32 0xFFFFFFFFFFFFFFFFFFFFFFFFFFFFFFFFFFFFFFFFFFFFFFFFFFFFFFFFFFFFFFFF DUP3 PUSH2 0x145A JUMP JUMPDEST PUSH2 0x14A1 DUP7 DUP4 PUSH2 0x145A JUMP JUMPDEST SWAP6 POP DUP1 NOT DUP5 AND SWAP4 POP DUP1 DUP7 AND DUP5 OR SWAP3 POP POP POP SWAP4 SWAP3 POP POP POP JUMP JUMPDEST PUSH1 0x0 DUP2 SWAP1 POP SWAP2 SWAP1 POP JUMP JUMPDEST PUSH1 0x0 PUSH2 0x14DE PUSH2 0x14D9 PUSH2 0x14D4 DUP5 PUSH2 0x921 JUMP JUMPDEST PUSH2 0x14B9 JUMP JUMPDEST PUSH2 0x921 JUMP JUMPDEST SWAP1 POP SWAP2 SWAP1 POP JUMP JUMPDEST PUSH1 0x0 DUP2 SWAP1 POP SWAP2 SWAP1 POP JUMP JUMPDEST PUSH2 0x14F8 DUP4 PUSH2 0x14C3 JUMP JUMPDEST PUSH2 0x150C PUSH2 0x1504 DUP3 PUSH2 0x14E5 JUMP JUMPDEST DUP5 DUP5 SLOAD PUSH2 0x1467 JUMP JUMPDEST DUP3 SSTORE POP POP POP POP JUMP JUMPDEST PUSH1 0x0 SWAP1 JUMP JUMPDEST PUSH2 0x1521 PUSH2 0x1514 JUMP JUMPDEST PUSH2 0x152C DUP2 DUP5 DUP5 PUSH2 0x14EF JUMP JUMPDEST POP POP POP JUMP JUMPDEST JUMPDEST DUP2 DUP2 LT ISZERO PUSH2 0x1550 JUMPI PUSH2 0x1545 PUSH1 0x0 DUP3 PUSH2 0x1519 JUMP JUMPDEST PUSH1 0x1 DUP2 ADD SWAP1 POP PUSH2 0x1532 JUMP JUMPDEST POP POP JUMP JUMPDEST PUSH1 0x1F DUP3 GT ISZERO PUSH2 0x1595 JUMPI PUSH2 0x1566 DUP2 PUSH2 0x105B JUMP JUMPDEST PUSH2 0x156F DUP5 PUSH2 0x144A JUMP JUMPDEST DUP2 ADD PUSH1 0x20 DUP6 LT ISZERO PUSH2 0x157E JUMPI DUP2 SWAP1 POP JUMPDEST PUSH2 0x1592 PUSH2 0x158A DUP6 PUSH2 0x144A JUMP JUMPDEST DUP4 ADD DUP3 PUSH2 0x1531 JUMP JUMPDEST POP POP JUMPDEST POP POP POP JUMP JUMPDEST PUSH1 0x0 DUP3 DUP3 SHR SWAP1 POP SWAP3 SWAP2 POP POP JUMP JUMPDEST PUSH1 0x0 PUSH2 0x15B8 PUSH1 0x0 NOT DUP5 PUSH1 0x8 MUL PUSH2 0x159A JUMP JUMPDEST NOT DUP1 DUP4 AND SWAP2 POP POP SWAP3 SWAP2 POP POP JUMP JUMPDEST PUSH1 0x0 PUSH2 0x15D1 DUP4 DUP4 PUSH2 0x15A7 JUMP JUMPDEST SWAP2 POP DUP3 PUSH1 0x2 MUL DUP3 OR SWAP1 POP SWAP3 SWAP2 POP POP JUMP JUMPDEST PUSH2 0x15EA DUP3 PUSH2 0x993 JUMP JUMPDEST PUSH8 0xFFFFFFFFFFFFFFFF DUP2 GT ISZERO PUSH2 0x1603 JUMPI PUSH2 0x1602 PUSH2 0xB91 JUMP JUMPDEST JUMPDEST PUSH2 0x160D DUP3 SLOAD PUSH2 0xDA5 JUMP JUMPDEST PUSH2 0x1618 DUP3 DUP3 DUP6 PUSH2 0x1554 JUMP JUMPDEST PUSH1 0x0 PUSH1 0x20 SWAP1 POP PUSH1 0x1F DUP4 GT PUSH1 0x1 DUP2 EQ PUSH2 0x164B JUMPI PUSH1 0x0 DUP5 ISZERO PUSH2 0x1639 JUMPI DUP3 DUP8 ADD MLOAD SWAP1 POP JUMPDEST PUSH2 0x1643 DUP6 DUP3 PUSH2 0x15C5 JUMP JUMPDEST DUP7 SSTORE POP PUSH2 0x16AB JUMP JUMPDEST PUSH1 0x1F NOT DUP5 AND PUSH2 0x1659 DUP7 PUSH2 0x105B JUMP JUMPDEST PUSH1 0x0 JUMPDEST DUP3 DUP2 LT ISZERO PUSH2 0x1681 JUMPI DUP5 DUP10 ADD MLOAD DUP3 SSTORE PUSH1 0x1 DUP3 ADD SWAP2 POP PUSH1 0x20 DUP6 ADD SWAP5 POP PUSH1 0x20 DUP2 ADD SWAP1 POP PUSH2 0x165C JUMP JUMPDEST DUP7 DUP4 LT ISZERO PUSH2 0x169E JUMPI DUP5 DUP10 ADD MLOAD PUSH2 0x169A PUSH1 0x1F DUP10 AND DUP3 PUSH2 0x15A7 JUMP JUMPDEST DUP4 SSTORE POP JUMPDEST PUSH1 0x1 PUSH1 0x2 DUP9 MUL ADD DUP9 SSTORE POP POP POP JUMPDEST POP POP POP POP POP POP JUMP JUMPDEST PUSH1 0x0 PUSH1 0xA0 DUP3 ADD SWAP1 POP PUSH2 0x16C8 PUSH1 0x0 DUP4 ADD DUP9 PUSH2 0x984 JUMP JUMPDEST DUP2 DUP2 SUB PUSH1 0x20 DUP4 ADD MSTORE PUSH2 0x16DA DUP2 DUP8 PUSH2 0x9EA JUMP JUMPDEST SWAP1 POP PUSH2 0x16E9 PUSH1 0x40 DUP4 ADD DUP7 PUSH2 0x984 JUMP JUMPDEST PUSH2 0x16F6 PUSH1 0x60 DUP4 ADD DUP6 PUSH2 0x984 JUMP JUMPDEST PUSH2 0x1703 PUSH1 0x80 DUP4 ADD DUP5 PUSH2 0xB1D JUMP JUMPDEST SWAP7 SWAP6 POP POP POP POP POP POP JUMP INVALID LOG2 PUSH5 0x6970667358 0x22 SLT KECCAK256 0xE1 EQ SWAP15 CALLDATALOAD MUL 0xCD SWAP13 0xE PUSH5 0x6E4DE5A53F PUSH12 0x3F6853BB328A17F2C69E81A5 0x28 STATICCALL PUSH11 0xB0C964736F6C6343000812 STOP CALLER "},"methodIdentifiers":{"listProduct(uint256)":"8890fe98","owner()":"8da5cb5b","productCount()":"e0f6ef87","products(uint256)":"7acc0b20","purchaseProduct(uint256,uint256)":"a0440426","registerProduct(string,string,uint256,uint256)":"c38f01aa"}}}}}