{
  "_format": "hh-sol-artifact-1",
  "contractName": "Marketplace",
  "sourceName": "contracts/Marketplace.sol",
  "abi": [
    {
      "inputs": [],
      "stateMutability": "nonpayable",
      "type": "constructor"
    },
    {
      "anonymous": false,
      "inputs": [
        {
          "indexed": false,
          "internalType": "uint256",
          "name": "id",
          "type": "uint256"
        },
        {
          "indexed": false,
          "internalType": "string",
          "name": "name",
          "type": "string"
        },
        {
          "indexed": false,
          "internalType": "uint256",
          "name": "price",
          "type": "uint256"
        },
        {
          "indexed": false,
          "internalType": "address",
          "name": "seller",
          "type": "address"
        }
      ],
      "name": "ProductCreated",
      "type": "event"
    },
    {
      "anonymous": false,
      "inputs": [
        {
          "indexed": false,
          "internalType": "uint256",
          "name": "id",
          "type": "uint256"
        },
        {
          "indexed": false,
          "internalType": "string",
          "name": "name",
          "type": "string"
        },
        {
          "indexed": false,
          "internalType": "uint256",
          "name": "price",
          "type": "uint256"
        },
        {
          "indexed": false,
          "internalType": "address",
          "name": "buyer",
          "type": "address"
        }
      ],
      "name": "ProductPurchased",
      "type": "event"
    },
    {
      "inputs": [
        {
          "internalType": "string",
          "name": "_name",
          "type": "string"
        },
        {
          "internalType": "string",
          "name": "_description",
          "type": "string"
        },
        {
          "internalType": "uint256",
          "name": "_price",
          "type": "uint256"
        }
      ],
      "name": "createProduct",
      "outputs": [],
      "stateMutability": "nonpayable",
      "type": "function"
    },
    {
      "inputs": [],
      "name": "owner",
      "outputs": [
        {
          "internalType": "address",
          "name": "",
          "type": "address"
        }
      ],
      "stateMutability": "view",
      "type": "function"
    },
    {
      "inputs": [],
      "name": "productCount",
      "outputs": [
        {
          "internalType": "uint256",
          "name": "",
          "type": "uint256"
        }
      ],
      "stateMutability": "view",
      "type": "function"
    },
    {
      "inputs": [
        {
          "internalType": "uint256",
          "name": "",
          "type": "uint256"
        }
      ],
      "name": "products",
      "outputs": [
        {
          "internalType": "uint256",
          "name": "id",
          "type": "uint256"
        },
        {
          "internalType": "string",
          "name": "name",
          "type": "string"
        },
        {
          "internalType": "string",
          "name": "description",
          "type": "string"
        },
        {
          "internalType": "uint256",
          "name": "price",
          "type": "uint256"
        },
        {
          "internalType": "address payable",
          "name": "seller",
          "type": "address"
        },
        {
          "internalType": "bool",
          "name": "isSold",
          "type": "bool"
        }
      ],
      "stateMutability": "view",
      "type": "function"
    },
    {
      "inputs": [
        {
          "internalType": "uint256",
          "name": "_productId",
          "type": "uint256"
        }
      ],
      "name": "purchaseProduct",
      "outputs": [],
      "stateMutability": "payable",
      "type": "function"
    }
  ],
  "bytecode": "0x608060405234801561001057600080fd5b50336000806101000a81548173ffffffffffffffffffffffffffffffffffffffff021916908373ffffffffffffffffffffffffffffffffffffffff1602179055506111e4806100606000396000f3fe60806040526004361061004a5760003560e01c806338e76a031461004f5780637acc0b201461006b5780638da5cb5b146100ad578063a1422209146100d8578063e0f6ef8714610101575b600080fd5b610069600480360381019061006491906106db565b61012c565b005b34801561007757600080fd5b50610092600480360381019061008d91906106db565b6102c0565b6040516100a496959493929190610803565b60405180910390f35b3480156100b957600080fd5b506100c2610439565b6040516100cf9190610893565b60405180910390f35b3480156100e457600080fd5b506100ff60048036038101906100fa91906109e3565b61045d565b005b34801561010d57600080fd5b5061011661068b565b6040516101239190610a6e565b60405180910390f35b60006002600083815260200190815260200160002090506000816000015411801561016657508060040160149054906101000a900460ff16155b6101a5576040517f08c379a000000000000000000000000000000000000000000000000000000000815260040161019c90610afb565b60405180910390fd5b80600301543410156101ec576040517f08c379a00000000000000000000000000000000000000000000000000000000081526004016101e390610b8d565b60405180910390fd5b8060040160009054906101000a900473ffffffffffffffffffffffffffffffffffffffff1673ffffffffffffffffffffffffffffffffffffffff166108fc349081150290604051600060405180830381858888f19350505050158015610256573d6000803e3d6000fd5b5060018160040160146101000a81548160ff0219169083151502179055507fa11e47d046e4d3dbc2056861a52aae8c7121c61d1ef01f11a17be988d5ef2f318160000154826001018360030154336040516102b49493929190610ca6565b60405180910390a15050565b60026020528060005260406000206000915090508060000154908060010180546102e990610bdc565b80601f016020809104026020016040519081016040528092919081815260200182805461031590610bdc565b80156103625780601f1061033757610100808354040283529160200191610362565b820191906000526020600020905b81548152906001019060200180831161034557829003601f168201915b50505050509080600201805461037790610bdc565b80601f01602080910402602001604051908101604052809291908181526020018280546103a390610bdc565b80156103f05780601f106103c5576101008083540402835291602001916103f0565b820191906000526020600020905b8154815290600101906020018083116103d357829003601f168201915b5050505050908060030154908060040160009054906101000a900473ffffffffffffffffffffffffffffffffffffffff16908060040160149054906101000a900460ff16905086565b60008054906101000a900473ffffffffffffffffffffffffffffffffffffffff1681565b60008351116104a1576040517f08c379a000000000000000000000000000000000000000000000000000000000815260040161049890610d3e565b60405180910390fd5b60008251116104e5576040517f08c379a00000000000000000000000000000000000000000000000000000000081526004016104dc90610dd0565b60405180910390fd5b60008111610528576040517f08c379a000000000000000000000000000000000000000000000000000000000815260040161051f90610e62565b60405180910390fd5b6001600081548092919061053b90610eb1565b91905055506040518060c0016040528060015481526020018481526020018381526020018281526020013373ffffffffffffffffffffffffffffffffffffffff168152602001600015158152506002600060015481526020019081526020016000206000820151816000015560208201518160010190816105bc9190611090565b5060408201518160020190816105d29190611090565b506060820151816003015560808201518160040160006101000a81548173ffffffffffffffffffffffffffffffffffffffff021916908373ffffffffffffffffffffffffffffffffffffffff16021790555060a08201518160040160146101000a81548160ff0219169083151502179055509050507f2e87df3c8f53fb06266ed52023929f5fab9f24130224ef6538b665d9cac8253060015484833360405161067e9493929190611162565b60405180910390a1505050565b60015481565b6000604051905090565b600080fd5b600080fd5b6000819050919050565b6106b8816106a5565b81146106c357600080fd5b50565b6000813590506106d5816106af565b92915050565b6000602082840312156106f1576106f061069b565b5b60006106ff848285016106c6565b91505092915050565b610711816106a5565b82525050565b600081519050919050565b600082825260208201905092915050565b60005b83811015610751578082015181840152602081019050610736565b60008484015250505050565b6000601f19601f8301169050919050565b600061077982610717565b6107838185610722565b9350610793818560208601610733565b61079c8161075d565b840191505092915050565b600073ffffffffffffffffffffffffffffffffffffffff82169050919050565b60006107d2826107a7565b9050919050565b6107e2816107c7565b82525050565b60008115159050919050565b6107fd816107e8565b82525050565b600060c0820190506108186000830189610708565b818103602083015261082a818861076e565b9050818103604083015261083e818761076e565b905061084d6060830186610708565b61085a60808301856107d9565b61086760a08301846107f4565b979650505050505050565b600061087d826107a7565b9050919050565b61088d81610872565b82525050565b60006020820190506108a86000830184610884565b92915050565b600080fd5b600080fd5b7f4e487b7100000000000000000000000000000000000000000000000000000000600052604160045260246000fd5b6108f08261075d565b810181811067ffffffffffffffff8211171561090f5761090e6108b8565b5b80604052505050565b6000610922610691565b905061092e82826108e7565b919050565b600067ffffffffffffffff82111561094e5761094d6108b8565b5b6109578261075d565b9050602081019050919050565b82818337600083830152505050565b600061098661098184610933565b610918565b9050828152602081018484840111156109a2576109a16108b3565b5b6109ad848285610964565b509392505050565b600082601f8301126109ca576109c96108ae565b5b81356109da848260208601610973565b91505092915050565b6000806000606084860312156109fc576109fb61069b565b5b600084013567ffffffffffffffff811115610a1a57610a196106a0565b5b610a26868287016109b5565b935050602084013567ffffffffffffffff811115610a4757610a466106a0565b5b610a53868287016109b5565b9250506040610a64868287016106c6565b9150509250925092565b6000602082019050610a836000830184610708565b92915050565b7f50726f6475637420646f6573206e6f74206578697374206f7220697320616c7260008201527f6561647920736f6c640000000000000000000000000000000000000000000000602082015250565b6000610ae5602983610722565b9150610af082610a89565b604082019050919050565b60006020820190508181036000830152610b1481610ad8565b9050919050565b7f496e73756666696369656e742066756e647320746f207075726368617365207460008201527f68652070726f6475637400000000000000000000000000000000000000000000602082015250565b6000610b77602a83610722565b9150610b8282610b1b565b604082019050919050565b60006020820190508181036000830152610ba681610b6a565b9050919050565b7f4e487b7100000000000000000000000000000000000000000000000000000000600052602260045260246000fd5b60006002820490506001821680610bf457607f821691505b602082108103610c0757610c06610bad565b5b50919050565b60008190508160005260206000209050919050565b60008154610c2f81610bdc565b610c398186610722565b94506001821660008114610c545760018114610c6a57610c9d565b60ff198316865281151560200286019350610c9d565b610c7385610c0d565b60005b83811015610c9557815481890152600182019150602081019050610c76565b808801955050505b50505092915050565b6000608082019050610cbb6000830187610708565b8181036020830152610ccd8186610c22565b9050610cdc6040830185610708565b610ce96060830184610884565b95945050505050565b7f50726f64756374206e616d652063616e6e6f7420626520656d70747900000000600082015250565b6000610d28601c83610722565b9150610d3382610cf2565b602082019050919050565b60006020820190508181036000830152610d5781610d1b565b9050919050565b7f50726f64756374206465736372697074696f6e2063616e6e6f7420626520656d60008201527f7074790000000000000000000000000000000000000000000000000000000000602082015250565b6000610dba602383610722565b9150610dc582610d5e565b604082019050919050565b60006020820190508181036000830152610de981610dad565b9050919050565b7f50726f64756374207072696365206d757374206265206772656174657220746860008201527f616e203000000000000000000000000000000000000000000000000000000000602082015250565b6000610e4c602483610722565b9150610e5782610df0565b604082019050919050565b60006020820190508181036000830152610e7b81610e3f565b9050919050565b7f4e487b7100000000000000000000000000000000000000000000000000000000600052601160045260246000fd5b6000610ebc826106a5565b91507fffffffffffffffffffffffffffffffffffffffffffffffffffffffffffffffff8203610eee57610eed610e82565b5b600182019050919050565b60006020601f8301049050919050565b600082821b905092915050565b600060088302610f467fffffffffffffffffffffffffffffffffffffffffffffffffffffffffffffffff82610f09565b610f508683610f09565b95508019841693508086168417925050509392505050565b6000819050919050565b6000610f8d610f88610f83846106a5565b610f68565b6106a5565b9050919050565b6000819050919050565b610fa783610f72565b610fbb610fb382610f94565b848454610f16565b825550505050565b600090565b610fd0610fc3565b610fdb818484610f9e565b505050565b5b81811015610fff57610ff4600082610fc8565b600181019050610fe1565b5050565b601f8211156110445761101581610c0d565b61101e84610ef9565b8101602085101561102d578190505b61104161103985610ef9565b830182610fe0565b50505b505050565b600082821c905092915050565b600061106760001984600802611049565b1980831691505092915050565b60006110808383611056565b9150826002028217905092915050565b61109982610717565b67ffffffffffffffff8111156110b2576110b16108b8565b5b6110bc8254610bdc565b6110c7828285611003565b600060209050601f8311600181146110fa57600084156110e8578287015190505b6110f28582611074565b86555061115a565b601f19841661110886610c0d565b60005b828110156111305784890151825560018201915060208501945060208101905061110b565b8683101561114d5784890151611149601f891682611056565b8355505b6001600288020188555050505b505050505050565b60006080820190506111776000830187610708565b8181036020830152611189818661076e565b90506111986040830185610708565b6111a56060830184610884565b9594505050505056fea2646970667358221220cd8e3280c54e39cf7498c1f01a1db9a696046a7b0762f012d4f53737175a6e7164736f6c63430008120033",
  "linkReferences": {},
  "deployedLinkReferences": {}
}