{
  "_format": "hh-sol-artifact-1",
  "contractName": "Marketplace",
  "sourceName": "contracts/Marketplace.sol",
  "abi": [
    {
      "inputs": [],
      "stateMutability": "nonpayable",
      "type": "constructor"
    },
    {
      "anonymous": false,
      "inputs": [
        {
          "indexed": false,
          "internalType": "uint256",
          "name": "id",
          "type": "uint256"
        },
        {
          "indexed": false,
          "internalType": "string",
          "name": "name",
          "type": "string"
        },
        {
          "indexed": false,
          "internalType": "uint256",
          "name": "price",
          "type": "uint256"
        },
        {
          "indexed": false,
          "internalType": "uint256",
          "name": "quantity",
          "type": "uint256"
        },
        {
          "indexed": false,
          "internalType": "address",
          "name": "seller",
          "type": "address"
        }
      ],
      "name": "ProductCreated",
      "type": "event"
    },
    {
      "anonymous": false,
      "inputs": [
        {
          "indexed": false,
          "internalType": "uint256",
          "name": "id",
          "type": "uint256"
        },
        {
          "indexed": false,
          "internalType": "string",
          "name": "name",
          "type": "string"
        },
        {
          "indexed": false,
          "internalType": "uint256",
          "name": "price",
          "type": "uint256"
        },
        {
          "indexed": false,
          "internalType": "uint256",
          "name": "quantity",
          "type": "uint256"
        },
        {
          "indexed": false,
          "internalType": "address",
          "name": "buyer",
          "type": "address"
        }
      ],
      "name": "ProductPurchased",
      "type": "event"
    },
    {
      "inputs": [
        {
          "internalType": "uint256",
          "name": "_productId",
          "type": "uint256"
        }
      ],
      "name": "listProduct",
      "outputs": [],
      "stateMutability": "nonpayable",
      "type": "function"
    },
    {
      "inputs": [],
      "name": "owner",
      "outputs": [
        {
          "internalType": "address",
          "name": "",
          "type": "address"
        }
      ],
      "stateMutability": "view",
      "type": "function"
    },
    {
      "inputs": [],
      "name": "productCount",
      "outputs": [
        {
          "internalType": "uint256",
          "name": "",
          "type": "uint256"
        }
      ],
      "stateMutability": "view",
      "type": "function"
    },
    {
      "inputs": [
        {
          "internalType": "uint256",
          "name": "",
          "type": "uint256"
        }
      ],
      "name": "products",
      "outputs": [
        {
          "internalType": "uint256",
          "name": "id",
          "type": "uint256"
        },
        {
          "internalType": "string",
          "name": "name",
          "type": "string"
        },
        {
          "internalType": "string",
          "name": "description",
          "type": "string"
        },
        {
          "internalType": "uint256",
          "name": "price",
          "type": "uint256"
        },
        {
          "internalType": "uint256",
          "name": "quantity",
          "type": "uint256"
        },
        {
          "internalType": "address payable",
          "name": "seller",
          "type": "address"
        },
        {
          "internalType": "address payable",
          "name": "buyer",
          "type": "address"
        },
        {
          "internalType": "bool",
          "name": "isSold",
          "type": "bool"
        }
      ],
      "stateMutability": "view",
      "type": "function"
    },
    {
      "inputs": [
        {
          "internalType": "uint256",
          "name": "_productId",
          "type": "uint256"
        },
        {
          "internalType": "uint256",
          "name": "_quantity",
          "type": "uint256"
        }
      ],
      "name": "purchaseProduct",
      "outputs": [],
      "stateMutability": "nonpayable",
      "type": "function"
    },
    {
      "inputs": [
        {
          "internalType": "string",
          "name": "_name",
          "type": "string"
        },
        {
          "internalType": "string",
          "name": "_description",
          "type": "string"
        },
        {
          "internalType": "uint256",
          "name": "_price",
          "type": "uint256"
        },
        {
          "internalType": "uint256",
          "name": "_quantity",
          "type": "uint256"
        }
      ],
      "name": "registerProduct",
      "outputs": [],
      "stateMutability": "nonpayable",
      "type": "function"
    }
  ],
  "bytecode": "0x608060405234801561001057600080fd5b50336000806101000a81548173ffffffffffffffffffffffffffffffffffffffff021916908373ffffffffffffffffffffffffffffffffffffffff160217905550611743806100606000396000f3fe608060405234801561001057600080fd5b50600436106100625760003560e01c80637acc0b20146100675780638890fe981461009e5780638da5cb5b146100ba578063a0440426146100d8578063c38f01aa146100f4578063e0f6ef8714610110575b600080fd5b610081600480360381019061007c9190610957565b61012e565b604051610095989796959493929190610a7f565b60405180910390f35b6100b860048036038101906100b39190610957565b6102d3565b005b6100c2610442565b6040516100cf9190610b2c565b60405180910390f35b6100f260048036038101906100ed9190610b47565b610466565b005b61010e60048036038101906101099190610cbc565b610590565b005b610118610907565b6040516101259190610d5b565b60405180910390f35b600260205280600052604060002060009150905080600001549080600101805461015790610da5565b80601f016020809104026020016040519081016040528092919081815260200182805461018390610da5565b80156101d05780601f106101a5576101008083540402835291602001916101d0565b820191906000526020600020905b8154815290600101906020018083116101b357829003601f168201915b5050505050908060020180546101e590610da5565b80601f016020809104026020016040519081016040528092919081815260200182805461021190610da5565b801561025e5780601f106102335761010080835404028352916020019161025e565b820191906000526020600020905b81548152906001019060200180831161024157829003601f168201915b5050505050908060030154908060040154908060050160009054906101000a900473ffffffffffffffffffffffffffffffffffffffff16908060060160009054906101000a900473ffffffffffffffffffffffffffffffffffffffff16908060060160149054906101000a900460ff16905088565b60006002600083815260200190815260200160002090506000816000015411801561030c57508060060160149054906101000a900460ff165b61034b576040517f08c379a000000000000000000000000000000000000000000000000000000000815260040161034290610e48565b60405180910390fd5b8060050160009054906101000a900473ffffffffffffffffffffffffffffffffffffffff1673ffffffffffffffffffffffffffffffffffffffff163373ffffffffffffffffffffffffffffffffffffffff16146103dd576040517f08c379a00000000000000000000000000000000000000000000000000000000081526004016103d490610eda565b60405180910390fd5b60008160060160146101000a81548160ff02191690831515021790555060008160060160006101000a81548173ffffffffffffffffffffffffffffffffffffffff021916908373ffffffffffffffffffffffffffffffffffffffff1602179055505050565b60008054906101000a900473ffffffffffffffffffffffffffffffffffffffff1681565b6000600260008481526020019081526020016000209050600081600001541180156104a057508060060160149054906101000a900460ff16155b6104df576040517f08c379a00000000000000000000000000000000000000000000000000000000081526004016104d690610f6c565b60405180910390fd5b8060040154821115610526576040517f08c379a000000000000000000000000000000000000000000000000000000000815260040161051d90610fd8565b60405180910390fd5b8181600401600082825461053a9190611027565b925050819055507fd922a2fffde7c04efb85e105cb4324b2ebe96919a6a107b6c63afb85484b8da9816000015482600101836003015485336040516105839594939291906110f4565b60405180910390a1505050565b60008054906101000a900473ffffffffffffffffffffffffffffffffffffffff1673ffffffffffffffffffffffffffffffffffffffff163373ffffffffffffffffffffffffffffffffffffffff161461061e576040517f08c379a0000000000000000000000000000000000000000000000000000000008152600401610615906111c0565b60405180910390fd5b6000845111610662576040517f08c379a00000000000000000000000000000000000000000000000000000000081526004016106599061122c565b60405180910390fd5b60008351116106a6576040517f08c379a000000000000000000000000000000000000000000000000000000000815260040161069d906112be565b60405180910390fd5b600082116106e9576040517f08c379a00000000000000000000000000000000000000000000000000000000081526004016106e090611350565b60405180910390fd5b6000811161072c576040517f08c379a0000000000000000000000000000000000000000000000000000000008152600401610723906113e2565b60405180910390fd5b6001600081548092919061073f90611402565b919050555060405180610100016040528060015481526020018581526020018481526020018381526020018281526020013373ffffffffffffffffffffffffffffffffffffffff168152602001600073ffffffffffffffffffffffffffffffffffffffff168152602001600015158152506002600060015481526020019081526020016000206000820151816000015560208201518160010190816107e491906115e1565b5060408201518160020190816107fa91906115e1565b50606082015181600301556080820151816004015560a08201518160050160006101000a81548173ffffffffffffffffffffffffffffffffffffffff021916908373ffffffffffffffffffffffffffffffffffffffff16021790555060c08201518160060160006101000a81548173ffffffffffffffffffffffffffffffffffffffff021916908373ffffffffffffffffffffffffffffffffffffffff16021790555060e08201518160060160146101000a81548160ff0219169083151502179055509050507f75f809131c39228d740da0b686206b8ae86548c72bfdc872da71f4d4340301de600154858484336040516108f99594939291906116b3565b60405180910390a150505050565b60015481565b6000604051905090565b600080fd5b600080fd5b6000819050919050565b61093481610921565b811461093f57600080fd5b50565b6000813590506109518161092b565b92915050565b60006020828403121561096d5761096c610917565b5b600061097b84828501610942565b91505092915050565b61098d81610921565b82525050565b600081519050919050565b600082825260208201905092915050565b60005b838110156109cd5780820151818401526020810190506109b2565b60008484015250505050565b6000601f19601f8301169050919050565b60006109f582610993565b6109ff818561099e565b9350610a0f8185602086016109af565b610a18816109d9565b840191505092915050565b600073ffffffffffffffffffffffffffffffffffffffff82169050919050565b6000610a4e82610a23565b9050919050565b610a5e81610a43565b82525050565b60008115159050919050565b610a7981610a64565b82525050565b600061010082019050610a95600083018b610984565b8181036020830152610aa7818a6109ea565b90508181036040830152610abb81896109ea565b9050610aca6060830188610984565b610ad76080830187610984565b610ae460a0830186610a55565b610af160c0830185610a55565b610afe60e0830184610a70565b9998505050505050505050565b6000610b1682610a23565b9050919050565b610b2681610b0b565b82525050565b6000602082019050610b416000830184610b1d565b92915050565b60008060408385031215610b5e57610b5d610917565b5b6000610b6c85828601610942565b9250506020610b7d85828601610942565b9150509250929050565b600080fd5b600080fd5b7f4e487b7100000000000000000000000000000000000000000000000000000000600052604160045260246000fd5b610bc9826109d9565b810181811067ffffffffffffffff82111715610be857610be7610b91565b5b80604052505050565b6000610bfb61090d565b9050610c078282610bc0565b919050565b600067ffffffffffffffff821115610c2757610c26610b91565b5b610c30826109d9565b9050602081019050919050565b82818337600083830152505050565b6000610c5f610c5a84610c0c565b610bf1565b905082815260208101848484011115610c7b57610c7a610b8c565b5b610c86848285610c3d565b509392505050565b600082601f830112610ca357610ca2610b87565b5b8135610cb3848260208601610c4c565b91505092915050565b60008060008060808587031215610cd657610cd5610917565b5b600085013567ffffffffffffffff811115610cf457610cf361091c565b5b610d0087828801610c8e565b945050602085013567ffffffffffffffff811115610d2157610d2061091c565b5b610d2d87828801610c8e565b9350506040610d3e87828801610942565b9250506060610d4f87828801610942565b91505092959194509250565b6000602082019050610d706000830184610984565b92915050565b7f4e487b7100000000000000000000000000000000000000000000000000000000600052602260045260246000fd5b60006002820490506001821680610dbd57607f821691505b602082108103610dd057610dcf610d76565b5b50919050565b7f50726f6475637420646f6573206e6f74206578697374206f72206973206e6f7460008201527f20736f6c64000000000000000000000000000000000000000000000000000000602082015250565b6000610e3260258361099e565b9150610e3d82610dd6565b604082019050919050565b60006020820190508181036000830152610e6181610e25565b9050919050565b7f4f6e6c79207468652073656c6c65722063616e206c697374207468652070726f60008201527f6475637400000000000000000000000000000000000000000000000000000000602082015250565b6000610ec460248361099e565b9150610ecf82610e68565b604082019050919050565b60006020820190508181036000830152610ef381610eb7565b9050919050565b7f50726f6475637420646f6573206e6f74206578697374206f7220697320616c7260008201527f6561647920736f6c640000000000000000000000000000000000000000000000602082015250565b6000610f5660298361099e565b9150610f6182610efa565b604082019050919050565b60006020820190508181036000830152610f8581610f49565b9050919050565b7f4e6f7420656e6f756768207175616e7469747920617661696c61626c65000000600082015250565b6000610fc2601d8361099e565b9150610fcd82610f8c565b602082019050919050565b60006020820190508181036000830152610ff181610fb5565b9050919050565b7f4e487b7100000000000000000000000000000000000000000000000000000000600052601160045260246000fd5b600061103282610921565b915061103d83610921565b925082820390508181111561105557611054610ff8565b5b92915050565b60008190508160005260206000209050919050565b6000815461107d81610da5565b611087818661099e565b945060018216600081146110a257600181146110b8576110eb565b60ff1983168652811515602002860193506110eb565b6110c18561105b565b60005b838110156110e3578154818901526001820191506020810190506110c4565b808801955050505b50505092915050565b600060a0820190506111096000830188610984565b818103602083015261111b8187611070565b905061112a6040830186610984565b6111376060830185610984565b6111446080830184610b1d565b9695505050505050565b7f4f6e6c7920746865206f776e65722063616e2063616c6c20746869732066756e60008201527f6374696f6e000000000000000000000000000000000000000000000000000000602082015250565b60006111aa60258361099e565b91506111b58261114e565b604082019050919050565b600060208201905081810360008301526111d98161119d565b9050919050565b7f50726f64756374206e616d652063616e6e6f7420626520656d70747900000000600082015250565b6000611216601c8361099e565b9150611221826111e0565b602082019050919050565b6000602082019050818103600083015261124581611209565b9050919050565b7f50726f64756374206465736372697074696f6e2063616e6e6f7420626520656d60008201527f7074790000000000000000000000000000000000000000000000000000000000602082015250565b60006112a860238361099e565b91506112b38261124c565b604082019050919050565b600060208201905081810360008301526112d78161129b565b9050919050565b7f50726f64756374207072696365206d757374206265206772656174657220746860008201527f616e203000000000000000000000000000000000000000000000000000000000602082015250565b600061133a60248361099e565b9150611345826112de565b604082019050919050565b600060208201905081810360008301526113698161132d565b9050919050565b7f50726f64756374207175616e74697479206d757374206265206772656174657260008201527f207468616e203000000000000000000000000000000000000000000000000000602082015250565b60006113cc60278361099e565b91506113d782611370565b604082019050919050565b600060208201905081810360008301526113fb816113bf565b9050919050565b600061140d82610921565b91507fffffffffffffffffffffffffffffffffffffffffffffffffffffffffffffffff820361143f5761143e610ff8565b5b600182019050919050565b60006020601f8301049050919050565b600082821b905092915050565b6000600883026114977fffffffffffffffffffffffffffffffffffffffffffffffffffffffffffffffff8261145a565b6114a1868361145a565b95508019841693508086168417925050509392505050565b6000819050919050565b60006114de6114d96114d484610921565b6114b9565b610921565b9050919050565b6000819050919050565b6114f8836114c3565b61150c611504826114e5565b848454611467565b825550505050565b600090565b611521611514565b61152c8184846114ef565b505050565b5b8181101561155057611545600082611519565b600181019050611532565b5050565b601f821115611595576115668161105b565b61156f8461144a565b8101602085101561157e578190505b61159261158a8561144a565b830182611531565b50505b505050565b600082821c905092915050565b60006115b86000198460080261159a565b1980831691505092915050565b60006115d183836115a7565b9150826002028217905092915050565b6115ea82610993565b67ffffffffffffffff81111561160357611602610b91565b5b61160d8254610da5565b611618828285611554565b600060209050601f83116001811461164b5760008415611639578287015190505b61164385826115c5565b8655506116ab565b601f1984166116598661105b565b60005b828110156116815784890151825560018201915060208501945060208101905061165c565b8683101561169e578489015161169a601f8916826115a7565b8355505b6001600288020188555050505b505050505050565b600060a0820190506116c86000830188610984565b81810360208301526116da81876109ea565b90506116e96040830186610984565b6116f66060830185610984565b6117036080830184610b1d565b969550505050505056fea2646970667358221220e1149e3502cd9c0e646e4de5a53f6b3f6853bb328a17f2c69e81a528fa6ab0c964736f6c63430008120033",
  "linkReferences": {},
  "deployedLinkReferences": {}
}