{
  "_format": "hh-sol-artifact-1",
  "contractName": "Cart",
  "sourceName": "contracts/Cart.sol",
  "abi": [
    {
      "anonymous": false,
      "inputs": [
        {
          "indexed": true,
          "internalType": "address",
          "name": "user",
          "type": "address"
        },
        {
          "indexed": false,
          "internalType": "uint256",
          "name": "totalCost",
          "type": "uint256"
        }
      ],
      "name": "CheckoutCompleted",
      "type": "event"
    },
    {
      "anonymous": false,
      "inputs": [
        {
          "indexed": true,
          "internalType": "address",
          "name": "user",
          "type": "address"
        },
        {
          "indexed": true,
          "internalType": "uint256",
          "name": "itemId",
          "type": "uint256"
        },
        {
          "indexed": false,
          "internalType": "uint256",
          "name": "quantity",
          "type": "uint256"
        },
        {
          "indexed": false,
          "internalType": "uint256",
          "name": "price",
          "type": "uint256"
        },
        {
          "indexed": false,
          "internalType": "address",
          "name": "buyerId",
          "type": "address"
        },
        {
          "indexed": false,
          "internalType": "address",
          "name": "sellerId",
          "type": "address"
        }
      ],
      "name": "ItemAddedToCart",
      "type": "event"
    },
    {
      "inputs": [
        {
          "internalType": "uint256",
          "name": "itemId",
          "type": "uint256"
        },
        {
          "internalType": "uint256",
          "name": "quantity",
          "type": "uint256"
        },
        {
          "internalType": "uint256",
          "name": "price",
          "type": "uint256"
        },
        {
          "internalType": "address",
          "name": "buyerId",
          "type": "address"
        },
        {
          "internalType": "address",
          "name": "sellerId",
          "type": "address"
        }
      ],
      "name": "addItemToCart",
      "outputs": [],
      "stateMutability": "nonpayable",
      "type": "function"
    },
    {
      "inputs": [],
      "name": "calculateTotalCost",
      "outputs": [
        {
          "internalType": "uint256",
          "name": "",
          "type": "uint256"
        }
      ],
      "stateMutability": "view",
      "type": "function"
    },
    {
      "inputs": [
        {
          "internalType": "address",
          "name": "",
          "type": "address"
        },
        {
          "internalType": "uint256",
          "name": "",
          "type": "uint256"
        }
      ],
      "name": "carts",
      "outputs": [
        {
          "internalType": "uint256",
          "name": "itemId",
          "type": "uint256"
        },
        {
          "internalType": "uint256",
          "name": "quantity",
          "type": "uint256"
        },
        {
          "internalType": "uint256",
          "name": "price",
          "type": "uint256"
        },
        {
          "internalType": "address",
          "name": "buyerId",
          "type": "address"
        },
        {
          "internalType": "address",
          "name": "sellerId",
          "type": "address"
        }
      ],
      "stateMutability": "view",
      "type": "function"
    },
    {
      "inputs": [],
      "name": "checkout",
      "outputs": [],
      "stateMutability": "payable",
      "type": "function"
    },
    {
      "inputs": [],
      "name": "clearCart",
      "outputs": [],
      "stateMutability": "nonpayable",
      "type": "function"
    },
    {
      "inputs": [],
      "name": "getCartItemCount",
      "outputs": [
        {
          "internalType": "uint256",
          "name": "",
          "type": "uint256"
        }
      ],
      "stateMutability": "view",
      "type": "function"
    }
  ],
  "bytecode": "0x608060405234801561001057600080fd5b50610e34806100206000396000f3fe6080604052600436106100555760003560e01c806306099d691461005a578063574fde97146100645780638b1a2d521461007b5780638d7c21c8146100bc578063adb36ab2146100e5578063e79aa29a14610110575b600080fd5b61006261013b565b005b34801561007057600080fd5b506100796103e4565b005b34801561008757600080fd5b506100a2600480360381019061009d91906109db565b610430565b6040516100b3959493929190610a39565b60405180910390f35b3480156100c857600080fd5b506100e360048036038101906100de9190610a8c565b6104c3565b005b3480156100f157600080fd5b506100fa610713565b6040516101079190610b07565b60405180910390f35b34801561011c57600080fd5b50610125610858565b6040516101329190610b07565b60405180910390f35b6000610145610713565b90508034101561018a576040517f08c379a000000000000000000000000000000000000000000000000000000000815260040161018190610b7f565b60405180910390fd5b60005b6000803373ffffffffffffffffffffffffffffffffffffffff1673ffffffffffffffffffffffffffffffffffffffff1681526020019081526020016000208054905081101561038a5760008060003373ffffffffffffffffffffffffffffffffffffffff1673ffffffffffffffffffffffffffffffffffffffff168152602001908152602001600020828154811061022857610227610b9f565b5b906000526020600020906005020160040160009054906101000a900473ffffffffffffffffffffffffffffffffffffffff16905060008060003373ffffffffffffffffffffffffffffffffffffffff1673ffffffffffffffffffffffffffffffffffffffff16815260200190815260200160002083815481106102ae576102ad610b9f565b5b9060005260206000209060050201600201546000803373ffffffffffffffffffffffffffffffffffffffff1673ffffffffffffffffffffffffffffffffffffffff16815260200190815260200160002084815481106103105761030f610b9f565b5b90600052602060002090600502016001015461032c9190610bfd565b90508173ffffffffffffffffffffffffffffffffffffffff166108fc829081150290604051600060405180830381858888f19350505050158015610374573d6000803e3d6000fd5b505050808061038290610c3f565b91505061018d565b503373ffffffffffffffffffffffffffffffffffffffff167fb4ec6fab196de3df71f0d27989ac42a483aea75216e6e2950ebc4c59a03fcf37826040516103d19190610b07565b60405180910390a26103e16103e4565b50565b6000803373ffffffffffffffffffffffffffffffffffffffff1673ffffffffffffffffffffffffffffffffffffffff168152602001908152602001600020600061042e91906108a1565b565b6000602052816000526040600020818154811061044c57600080fd5b9060005260206000209060050201600091509150508060000154908060010154908060020154908060030160009054906101000a900473ffffffffffffffffffffffffffffffffffffffff16908060040160009054906101000a900473ffffffffffffffffffffffffffffffffffffffff16905085565b60008411610506576040517f08c379a00000000000000000000000000000000000000000000000000000000081526004016104fd90610cf9565b60405180910390fd5b60008311610549576040517f08c379a000000000000000000000000000000000000000000000000000000000815260040161054090610d65565b60405180910390fd5b60006040518060a001604052808781526020018681526020018581526020018473ffffffffffffffffffffffffffffffffffffffff1681526020018373ffffffffffffffffffffffffffffffffffffffff1681525090506000803373ffffffffffffffffffffffffffffffffffffffff1673ffffffffffffffffffffffffffffffffffffffff16815260200190815260200160002081908060018154018082558091505060019003906000526020600020906005020160009091909190915060008201518160000155602082015181600101556040820151816002015560608201518160030160006101000a81548173ffffffffffffffffffffffffffffffffffffffff021916908373ffffffffffffffffffffffffffffffffffffffff16021790555060808201518160040160006101000a81548173ffffffffffffffffffffffffffffffffffffffff021916908373ffffffffffffffffffffffffffffffffffffffff1602179055505050853373ffffffffffffffffffffffffffffffffffffffff167f93506a45c8dedda50e05fa9caa16e8abca9c813c3da919a44ad78b9fd99f3927878787876040516107039493929190610d85565b60405180910390a3505050505050565b60008060005b6000803373ffffffffffffffffffffffffffffffffffffffff1673ffffffffffffffffffffffffffffffffffffffff16815260200190815260200160002080549050811015610850576000803373ffffffffffffffffffffffffffffffffffffffff1673ffffffffffffffffffffffffffffffffffffffff16815260200190815260200160002081815481106107b2576107b1610b9f565b5b9060005260206000209060050201600201546000803373ffffffffffffffffffffffffffffffffffffffff1673ffffffffffffffffffffffffffffffffffffffff168152602001908152602001600020828154811061081457610813610b9f565b5b9060005260206000209060050201600101546108309190610bfd565b8261083b9190610dca565b9150808061084890610c3f565b915050610719565b508091505090565b60008060003373ffffffffffffffffffffffffffffffffffffffff1673ffffffffffffffffffffffffffffffffffffffff16815260200190815260200160002080549050905090565b50805460008255600502906000526020600020908101906108c291906108c5565b50565b5b8082111561093e57600080820160009055600182016000905560028201600090556003820160006101000a81549073ffffffffffffffffffffffffffffffffffffffff02191690556004820160006101000a81549073ffffffffffffffffffffffffffffffffffffffff0219169055506005016108c6565b5090565b600080fd5b600073ffffffffffffffffffffffffffffffffffffffff82169050919050565b600061097282610947565b9050919050565b61098281610967565b811461098d57600080fd5b50565b60008135905061099f81610979565b92915050565b6000819050919050565b6109b8816109a5565b81146109c357600080fd5b50565b6000813590506109d5816109af565b92915050565b600080604083850312156109f2576109f1610942565b5b6000610a0085828601610990565b9250506020610a11858286016109c6565b9150509250929050565b610a24816109a5565b82525050565b610a3381610967565b82525050565b600060a082019050610a4e6000830188610a1b565b610a5b6020830187610a1b565b610a686040830186610a1b565b610a756060830185610a2a565b610a826080830184610a2a565b9695505050505050565b600080600080600060a08688031215610aa857610aa7610942565b5b6000610ab6888289016109c6565b9550506020610ac7888289016109c6565b9450506040610ad8888289016109c6565b9350506060610ae988828901610990565b9250506080610afa88828901610990565b9150509295509295909350565b6000602082019050610b1c6000830184610a1b565b92915050565b600082825260208201905092915050565b7f496e73756666696369656e742066756e64730000000000000000000000000000600082015250565b6000610b69601283610b22565b9150610b7482610b33565b602082019050919050565b60006020820190508181036000830152610b9881610b5c565b9050919050565b7f4e487b7100000000000000000000000000000000000000000000000000000000600052603260045260246000fd5b7f4e487b7100000000000000000000000000000000000000000000000000000000600052601160045260246000fd5b6000610c08826109a5565b9150610c13836109a5565b9250828202610c21816109a5565b91508282048414831517610c3857610c37610bce565b5b5092915050565b6000610c4a826109a5565b91507fffffffffffffffffffffffffffffffffffffffffffffffffffffffffffffffff8203610c7c57610c7b610bce565b5b600182019050919050565b7f5175616e74697479206d7573742062652067726561746572207468616e207a6560008201527f726f000000000000000000000000000000000000000000000000000000000000602082015250565b6000610ce3602283610b22565b9150610cee82610c87565b604082019050919050565b60006020820190508181036000830152610d1281610cd6565b9050919050565b7f5072696365206d7573742062652067726561746572207468616e207a65726f00600082015250565b6000610d4f601f83610b22565b9150610d5a82610d19565b602082019050919050565b60006020820190508181036000830152610d7e81610d42565b9050919050565b6000608082019050610d9a6000830187610a1b565b610da76020830186610a1b565b610db46040830185610a2a565b610dc16060830184610a2a565b95945050505050565b6000610dd5826109a5565b9150610de0836109a5565b9250828201905080821115610df857610df7610bce565b5b9291505056fea26469706673582212205693825b9d5a278040b9a53c60a5d6fec63c278db6aa4097720a8cca062bf5af64736f6c63430008120033",
  "linkReferences": {},
  "deployedLinkReferences": {}
}